:020000040800F2
:10000000285B0020B10100084F270008472700089F
:100010004B27000819050008713300080000000094
:10002000000000000000000000000000B52A0008E9
:100030009F0800080000000089270008B92A00086E
:10004000CB010008CB010008CB010008CB01000860
:10005000CB010008CB010008CB010008CB01000850
:10006000CB010008CB010008CB010008CB01000840
:10007000CB010008CB010008CB010008CB01000830
:10008000CB010008CB010008CB01000800000000F4
:10009000000000000000000000000000CB0100088C
:1000A000CB010008CB010008CB010008CB01000800
:1000B0008D2C0008CB010008CB010008CB01000803
:1000C000CB010008CB010008CB0100081D28000867
:1000D000CB010008B1320008F13200080000000036
:1000E000CB010008CB010008CB0100080000000094
:1000F000000000000000000000000000CB0100082C
:1001000000000000CB010008CB010008CB01000873
:1001100000000000000000000000000000000000DF
:1001200075070008CB01000885070008CB0100080F
:10013000CB010008000000000000000000000000EB
:10014000000000000000000000000000CB010008DB
:10015000CB010008CB010008CB01000831330008B7
:10016000CB010008CB0100080000000000000000E7
:10017000000000000000000000000000000000007F
:1001800000000000CB01000800000000000000009B
:10019000CB010008CB010008DFF810D000F0A4F874
:1001A0000048004765400008AFF30080285B00204E
:1001B0000648804706480047FEE7FEE7FEE7FEE701
:1001C000FEE7FEE7FEE7FEE7FEE7FEE7292C000874
:1001D000990100082DE9F05F0546002092469B46F4
:1001E00088460646814640241BE02846414647464D
:1001F000224600F068F853465A46C01A914110D37F
:1002000011461846224600F04FF82D1A67EB0108F8
:100210004F4622460120002100F046F817EB000966
:100220004E41201EA4F10104DFDC484631462A4637
:100230004346BDE8F09FD2B201E000F8012B491E11
:10024000FBD270470022F6E710B513460A46044673
:100250001946FFF7F0FF204610BDCAB2401E10F845
:10026000011F8A4202D00029F9D100207047421CA8
:1002700010F8011B0029FBD1801A704730B50B46DE
:10028000014600202022012409E021FA02F59D42C6
:1002900005D303FA02F5491B04FA02F52844151E9A
:1002A000A2F10102F1DC30BD202A04DB203A00FA81
:1002B00002F1002070479140C2F1200320FA03F3BD
:1002C000194390407047202A04DB203A21FA02F0BB
:1002D0000021704721FA02F3D040C2F12002914080
:1002E0000843194670470000064C074D06E0E068D9
:1002F00040F0010394E8070098471034AC42F6D36D
:10030000FFF74EFF4C4300086C43000854494A680D
:1003100022F440324A604A6843681A434A600268DD
:10032000526822F4807203685A6002685368026956
:1003300043EA022203685A600268526822F040725F
:1003400003685A600268526883681A4303685A60F7
:100350000268926822F4006203689A6002689268F8
:10036000C3681A4303689A603E4B826A9A4218D067
:100370000268926822F0706203689A60026892686C
:10038000836A1A4303689A600268926822F04052B6
:1003900003689A6002689268C36A1A4303689A60A5
:1003A0000BE00268926822F0706203689A6002684B
:1003B000926822F0405203689A600268926822F0C4
:1003C000020203689A6002689368826943EA420203
:1003D00003689A60026AA2B10268526842F400623D
:1003E00003685A600268526822F4604203685A60E7
:1003F00002685368426A521E43EA423203685A60F6
:1004000005E00268526822F4006203685A600268DC
:10041000D26A22F470020368DA620268D36A828BBD
:10042000521E43EA02520368DA620268926822F4BA
:10043000007203689A6002689368026B43EA422282
:1004400003689A600268926822F4806203689A6086
:1004500002689368426943EA822203689A6070479F
:10046000002301400100000F10B50446044A32F891
:100470001410044A52F8240000F022FF10BD0000BE
:10048000BC4200083C00002070B505460C4604F054
:10049000020010B101A002F06DFF70BDB0B4BCFC51
:1004A00031B1BBB0B4CFC20D0A00000070B5054633
:1004B0000C4604F0020010B101A002F05BFF70BD19
:1004C000B0B4BCFC32B1BBB0B4CFC20D0A00000066
:1004D00070B505460C4604F0020010B101A002F010
:1004E00049FF70BDB0B4BCFC33B1BBB0B4CFC20DDA
:1004F0000A00000070B505460C4604F0020010B179
:1005000001A002F037FF70BDB0B4BCFC34B1BBB089
:10051000B4CFC20D0A00000000BFFEE770B506466A
:100520000D46144605A1284602F034FF2846FFF781
:100530009EFE216808442060002070BD5B52455338
:1005400045545F4F4B313131315D000070B5064687
:100550000D46144605A1284602F01CFF2846FFF769
:1005600086FE216808442060002070BD5B53544122
:100570005F3F313132335D00F8B507460E46154610
:100580005F213846FFF769FE0446A078303861786D
:10059000303901EB810100EB410080B2ADF8000081
:1005A000607930382179303901EB810100EB41006D
:1005B00080B2ADF80200BDF80230BDF8002006A1FF
:1005C000304602F0E7FE3046FFF751FE2968084446
:1005D00028600020F8BD00005B4441435F25326481
:1005E0005F2532645D0000002DE9F04105460E46AE
:1005F0001746002415A002F0BDFE00BF20E004EB6A
:100600008400144901EB80000089B8B104EB840038
:100610000A4602EB800041680FA002F0ABFE0FA07B
:1006200002F0A8FE04EB84000A4A02EB8000C168D5
:1006300009A002F09FFE0AA002F09CFE601CC4B25A
:10064000052CDCD30020BDE8F081000048454C506B
:100650003A0D0A002C420008257300003A200000E1
:100660000D0A00002DE9F04105460E46174600240C
:1006700016A002F07FFE00BF22E004EB84001549C3
:1006800001EB8000007A00F00100B8B104EB8400B7
:100690000A4602EB800041680FA002F06BFE0FA03B
:1006A00002F068FE04EB84000A4A02EB8000C16895
:1006B00009A002F05FFE0AA002F05CFE601CC4B25A
:1006C000052CDAD30020BDE8F081000048454C50ED
:1006D0003A0D0A002C420008257300003A20000061
:1006E0000D0A00002DE9F04106460D4614463C2057
:1006F0002870D6F80100C5F8010005202060052704
:1007000021E0F05D5B2802D0781C07B21BE0226874
:100710005119F019224600F0C7F88046B8F1000FD1
:100720000CDA4FF00008206828440FA10A68026024
:100730004A684260097A01724FF009082068404413
:100740002060781C07B2F05D3E2802D0F05D0028E2
:10075000D7D13E20216868542068401C20600020CA
:1007600021686854BDE8F0815B434D445F455252B7
:100770005D00000010B50249C86C00F0A7FA10BD7A
:10078000C404002010B50249886C00F09FFA10BD27
:10079000C40400200146087810381823B0FBF3F297
:1007A0000848805CC865032A05D908686FF309000A
:1007B000001D886503E008686FF309008865886D8F
:1007C00070470000CC420008014600208A6A8B690D
:1007D000CBB932B1012A0DD0022A03D0032A10D19D
:1007E0000EE000BFCB6A03F08073B3F1807F00D1CD
:1007F000012007E0CB6AB3F1C07F00D1012001E006
:1008000000E000BF34E08B69B3F5005F1AD132B16C
:10081000012A07D0022A03D0032A11D10AE000BF1F
:1008200001200EE0CB6A03F08073B3F1807F00D12A
:10083000012006E0CB6AB3F1C07F00D1012000E0C7
:1008400000BF15E032B1012A05D0022A04D0032AE4
:100850000CD103E000BF00BF012008E0CB6A03F029
:100860008073B3F1807F00D1012000E000BF00BFA2
:10087000704730B50468246824F4802405682C602F
:10088000046863608468402C04D10468A260046832
:10089000E16003E00468A1600468E26030BD704775
:1008A00001B9704700BFFEE72DE9F04105460E464D
:1008B0001746002400BF1FE004EB8400114A02EB3E
:1008C00080004168284600F01FF8002812DD04EB84
:1008D00084000C4901EB8000006958B104EB8400EE
:1008E00001EB80003A46314603692846984700B23A
:1008F000BDE8F081601CC4B2052CDDD34FF0FF30A1
:10090000F6E700002C42000830B503460A460120F5
:1009100000210EE0545C04B90DE0545C2A2C00D197
:1009200006E0545C5D5CAC4201D0002003E000BFF7
:10093000491CC829EEDB00BF30BD000010B50446DD
:10094000044A32F81410044A52F8240000F0B0FCB3
:1009500010BD0000BC4200083C00002038B5024633
:100960000020009000BF92F83C00012801D1022035
:1009700038BD012082F83C0000BF0868092816D95C
:100980001068C0680C780A3C04EB44050724AC40AE
:10099000A0431468E0600C780A3C04EB44048868C7
:1009A000A0401468E46820431468E06013E0106815
:1009B00000690C7804EB44050724AC40A04314689C
:1009C00020610C7804EB44048868A0401468246912
:1009D0002043146820614868072817D21068406BCC
:1009E0000C79641E04EB84051F24AC40A0431468FA
:1009F0006063088880B20C79641E04EB8404A04014
:100A00001468646B20431468606331E048680D2803
:100A100017D21068006B0C79E41F04EB84051F24C7
:100A2000AC40A04314682063088880B20C79E41FAE
:100A300004EB8404A0401468246B204314682063F2
:100A400016E01068C06A0C790D3C04EB84051F2485
:100A5000AC40A0431468E062088880B20C790D3C79
:100A600004EB8404A0401468E46A20431468E06244
:100A70001A4B1B4C1068A04206D10868122803D1FB
:100A8000586840F480005860154C1068A0421ED190
:100A9000144C0868A04202D00868112817D1586881
:100AA00040F4000058600F4C0868A0420FD10E4877
:100AB00000680E4CB0FBF4F000EB800040000090AA
:100AC00002E00098401E009000980028F9D100BF75
:100AD000002082F83C0000BF00BF49E7002301402E
:100AE00000200140120000100000002040420F00D2
:100AF00070B5044600250CB9012070BD1549A06AE7
:100B0000884200D000BF206C30B90020606484F8B7
:100B10003C00204600F020F8206C00F0100088B95E
:100B2000206C20F4885040F0020020642046FFF73B
:100B3000EDFB00206064206C20F0020040F001001A
:100B4000206400E0012500BF002084F83C0000BFC5
:100B50002846D2E70100000F10B586B004461421E4
:100B600001A8FFF76FFB3149206888425CD100BFC4
:100B7000002000902E48006840F480702C490860E6
:100B80000846006800F48070009000BF00BF00BFFE
:100B90000020009026481438006840F004002449E2
:100BA000143908600846006800F00400009000BF97
:100BB00000BF00BF002000900846006840F0010020
:100BC00008600846006800F00100009000BF00BF08
:100BD00000BF002000900846006840F00200086056
:100BE0000846006800F00200009000BF00BF0F2020
:100BF0000190032002900020039001A90D4800F00D
:100C00006DFA0F200190032002900020039001A9AB
:100C1000094800F063FA032001900290002003903D
:100C200001A9064800F05AFA06B010BD00200140A4
:100C30004438024000080240000002400004024024
:100C4000014691F83500022803D080204865012034
:100C50007047052081F835000868006820F0010021
:100C60000A6810600020F3E770B504460CB9012053
:100C700070BD94F83500022800D1F9E720680068BB
:100C800020F00100216808600020216808602168C8
:100C90004860216888602168C86021680861212057
:100CA000216848612046FFF775FD054694F85C1001
:100CB0003F208840A8600020606584F8350000BFB0
:100CC00084F8340000BF00BFD2E70000F8B5044646
:100CD000002000908C4800684FF41651B0FBF1F7EB
:100CE000A56D2E6894F85C1008208840304098B1BB
:100CF0002068006800F0040070B12068006820F0EF
:100D000004002168086094F85C1008208840A860FE
:100D1000606D40F00100606594F85C10012088402F
:100D2000304068B12068406900F0800040B194F81C
:100D30005C1001208840A860606D40F00200606592
:100D400094F85C1004208840304068B12068006846
:100D500000F0020040B194F85C1004208840A860C4
:100D6000606D40F00400606594F85C1010208840CD
:100D7000304078B32068006800F0080050B394F861
:100D80005C1010208840A8602068006800F4802073
:100D900080B12068006800F4002028B9206CC8B138
:100DA0002046216C884715E0A06C98B12046A16CC4
:100DB00088470FE02068006800F4807028B9206838
:100DC000006820F0080021680860206C10B12046FF
:100DD000216C884794F85C1020208840304000281F
:100DE00065D02068006800F0100000285FD094F8FB
:100DF0005C1020208840A86094F83500052828D190
:100E00002068006820F016002168086020684069AA
:100E100020F0800021684861206C08B9A06C28B1DE
:100E20002068006820F008002168086094F85C10D1
:100E30003F208840A86000BF002084F8340000BF35
:100E4000012084F83500206D10B12046216D8847BF
:100E5000F8BD2068006800F4802080B12068006838
:100E600000F4002028B9606C10B12046616C8847FE
:100E70001DE0E06BD8B12046E16B884717E02068A1
:100E8000006800F4807068B92068006820F01000E5
:100E90002168086000BF002084F8340000BF0120F2
:100EA00084F83500E06B10B12046E16B8847606D37
:100EB00038B3606D00F00100F0B1052084F8350012
:100EC0002068006820F001002168086000BF0098D9
:100ED000401C0090B84200D905E02068006800F08E
:100EE00001000028F3D100BF00BF002084F83400C7
:100EF00000BF012084F83500E06C10B12046E16CA1
:100F0000884700BFA4E70000000000202DE9F04161
:100F10000446002500F0DEF9074614B90120BDE8BB
:100F2000F081606A00B100BF00BF002084F8340087
:100F300000BF022084F835002068006820F001001E
:100F4000216808600AE000F0C5F9C01B052805D932
:100F500020206065032084F83500E0E72068006801
:100F600000F001000028EED1206805682148054006
:100F7000D4E901010843E168084321690843616934
:100F80000843A1690843E1690843216A084305430E
:100F9000606A042803D1D4E90B01084305432068A3
:100FA00005602068456925F00705606A0543606AA9
:100FB00004280DD1A06A0543E06A48B12046FFF736
:100FC00003FC28B140206065012084F83500A6E7C5
:100FD000206845612046FFF7DDFB064694F85C106B
:100FE0003F208840B06000206065012084F8350013
:100FF000002094E73F8010F02DE9F04704460D46AD
:1010000016461F464FF00008D4F8589000BF94F8D9
:101010003400012802D10220BDE8F087012084F8C5
:10102000340000BF94F8350001282BD1022084F849
:101030003500002060653B46324629462046FFF7D2
:1010400018FC94F85C103F208840C9F8080020681C
:10105000006840F01600216808602068406940F090
:10106000800021684861206C28B12068006840F049
:101070000800216808602068006840F001002168CD
:10108000086006E000BF002084F8340000BF4FF085
:1010900002084046C0E7000010B54FF0FF300E498F
:1010A000086000200860401E091D086000200860DC
:1010B000401E09491039086000200860401E091DC3
:1010C000086000200860401E091D086000200860BC
:1010D00000F090F9002010BD20380240F8B503461A
:1010E0000A460025002400200021CDE0012606FA52
:1010F00001F5166806EA0504AC4273D15668022E63
:1011000002D05668122E13D1CF0803F1200656F8EC
:1011100027004E07F70E0F26BE40B0434F07FF0EC5
:101120001669BE403043CF0803F1200646F8270079
:1011300018684F000326BE40B043167906F0030638
:101140004F00BE40304318605668012E08D05668E4
:10115000022E05D05668112E02D05668122E13D1D9
:1011600098684F000326BE40B0434F00D668BE408B
:1011700030439860586801268E40B0431679C6F314
:1011800000168E4030435860D8684F000326BE409A
:10119000B0434F009668BE403043D860566806F0B2
:1011A0008056B6F1805F6ED100BF00260096384EA3
:1011B000366846F48046364F3E603E46366806F452
:1011C0008046009600BF00BF324E8F0856F82700B9
:1011D0008E07370F0F26BE40B0432F4EB34202D1C9
:1011E000002615E04FE02D4EB34201D101260FE05D
:1011F0002B4EB34201D102260AE02A4EB34201D15E
:10120000032605E0284EB34201D1042600E007265C
:101210008F073F0FBE4030431E4E8F0846F8270011
:10122000224E3068A043566806F48036B6F5803FFB
:1012300000D120431D4E3060361D3068A0435668F3
:1012400006F40036B6F5003F00D12043174E361D98
:101250003060361D3068A043566806F48016B6F537
:10126000801F00D12043114E08363060361D306893
:10127000A043566806F40016B6F5001F00D12043BF
:101280000A4E0C363060491C1029FFF42FAFF8BD10
:101290004438024008380140000002400004024087
:1012A00000080240000C024000100240003C0140D7
:1012B000024613690B400BB1012000E0002070478B
:1012C00042694A40426170470AB1816101E00B0402
:1012D000836170470148006870470000700000207B
:1012E00070B504460CB9012070BD4CF6CC402168A5
:1012F000086045F2555021680860D4E90010486044
:101300002168A0688860FFF7E5FF054606E0FFF763
:10131000E1FF401B302801D90320E5E72068C068C1
:101320000028F4D14AF6AA20216808600020DBE7F3
:1013300001464AF6AA200A6810600020704701465C
:101340004CF6CC400A6810604AF6AA200A68106081
:1013500000207047034800680349097808440149A0
:1013600008607047700000207800002010B50D481C
:10137000006840F400700B4908600846006840F4BB
:10138000806008600846006840F4807008600320B0
:1013900000F07EF80F2000F007F800F02CF8002095
:1013A00010BD0000003C024070B504460E480078B5
:1013B0004FF47A71B1FBF0F00C490968B1FBF0F51C
:1013C000284600F0ACFE08B1012070BD102C07D2F9
:1013D00000222146501E00F01CF80548046001E080
:1013E0000120F2E70020F0E7780000200000002054
:1013F000740000207047704700BF00F01F020121F9
:1014000091404209920002F1E022C2F8001100BFAF
:1014100070472DE9F05F80460D461646002701F023
:1014200097F9074639462A46334601F00700C0F1CE
:10143000070ABAF1040F02D94FF0040A01E0C0F123
:10144000070AD14600F1040ABAF1070F02D24FF0A1
:10145000000A01E0A0F1030AD4464FF0010A0AFA9B
:1014600009FAAAF1010A0AEA020A0AFA0CFA4FF08A
:10147000010B0BFA0CFBABF1010B0BEA030B4AEA75
:101480000B042146404601F06BF9BDE8F09F0000D7
:1014900000BF00F00702064B19684FF6FF03194022
:1014A000044B0B4343EA0221014B196000BF704714
:1014B0000CED00E00000FA0570B504460D460CB9CD
:1014C000012070BD5848006800F00F00A84209D202
:1014D00055490D700846006800F00F00A84201D081
:1014E0000120EEE7207800F0020002281DD12078CC
:1014F00000F00400042805D14C48006840F4E05096
:101500004A490860207800F00800082805D14748BB
:10151000006840F46040454908604448006820F095
:10152000F000A168084341490860207800F00100FC
:10153000A8B36068012807D13C4808380068C0F3A8
:101540004040B8B90120BCE76068022802D060685A
:10155000032807D1354808380068C0F3406048B90F
:101560000120AEE7314808380068C0F3400008B9F0
:101570000120A6E72D48006820F0030061680843B9
:101580002A490860FFF7A6FE064609E0FFF7A2FE1B
:10159000801B41F28831884202D9032091E707E09D
:1015A0002248006800F00C006168B0EB810FEDD1BB
:1015B0001D48006800F00F00A84209D91A490D70B3
:1015C0000846006800F00F00A84201D0012078E72B
:1015D000207800F00400042807D11448006820F4A3
:1015E000E050E168084311490860207800F00800E5
:1015F000082808D10D48006820F46040216940EABD
:10160000C1000A49086000F03DF808490968C1F3C3
:101610000311074A515CC840064908600F20FFF7D4
:10162000C3FE00204DE70000003C024008380240A5
:10163000A442000800000020014800687047000034
:101640000000002000B5FFF7F7FF04490968C1F367
:101650008221034A515CC84000BD000008380240A6
:10166000B442000800B5FFF7E7FF04490968C1F379
:101670004231034A515CC84000BD000008380240B6
:10168000B44200082DE9F047002400250026A146B9
:101690002548006800F00C0020B1042805D0082877
:1016A0003AD105E0DFF8849039E0DFF8849036E045
:1016B0001D48001F006800F03F041B48001F006821
:1016C00000F4800078B11A481749091F0968C1F36E
:1016D0008811A0FB01700146224600233846FEF720
:1016E00079FD05460EE011480F49091F0968C1F34D
:1016F0008811A0FB01700146224600233846FEF700
:1017000069FD05460848001F0068C0F30140401C01
:101710004600B5FBF6F902E0DFF8109000BF00BF0D
:101720004846BDE8F0870000083802400024F40075
:1017300000127A00F8B504460CB90120F8BD2078F3
:1017400000F00100002874D0F948006800F00C0097
:1017500004280DD0F648006800F00C00082813D1CA
:10176000F348001F006800F48000B0F5800F0BD133
:10177000EF4808380068C0F34040002859D060683E
:10178000002856D10120D9E700BF6068B0F5803F3E
:1017900008D1E7480838006840F48030E449083947
:1017A00008601EE06068B0F5A02F0DD1E048083851
:1017B000006840F48020DE49083908600846006867
:1017C00040F4803008600CE0D9480838006820F404
:1017D0008030D749083908600846006820F4802026
:1017E000086000BF606890B1FFF774FD054606E031
:1017F000FFF770FD401B642801D903209EE7CC4809
:1018000008380068C0F340400028F1D011E0FFF72D
:1018100061FD054606E0FFF75DFD401B642801D928
:1018200003208BE7C24808380068C0F34040002816
:10183000F1D1207800F0020002285FD1BC48006896
:1018400000F00C0058B1BA48006800F00C000828FD
:101850001CD1B748001F006800F48000B0B9B4483C
:1018600008380068C0F3400020B1E068012801D0CA
:10187000012063E7AE480838006820F0F8002169CD
:1018800040EAC100AA490839086037E0E06800B3BF
:101890000120A8490860FFF71DFD054606E0FFF797
:1018A00019FD401B022801D9032047E7A04808384A
:1018B0000068C0F340000028F1D09D480838006857
:1018C00020F0F800216940EAC10099490839086010
:1018D00014E0002097490860FFF7FCFC054606E08D
:1018E000FFF7F8FC401B022801D9032026E79048A7
:1018F00008380068C0F340000028F1D1207800F0DB
:10190000080008282CD16069A8B101208A49086024
:10191000FFF7E0FC054606E0FFF7DCFC401B022871
:1019200001D903200AE782486C300068C0F3400008
:101930000028F1D014E000207F490860FFF7CAFCBE
:10194000054606E0FFF7C6FC401B022801D903202C
:10195000F4E677486C300068C0F340000028F1D10D
:10196000207800F00400042870D100267048383038
:10197000006800F0805090B900BF002000906C48D3
:101980003830006840F080506949383108600846B6
:10199000006800F08050009000BF00BF012667483B
:1019A000006800F48070B0B96448006840F480704A
:1019B00062490860FFF78EFC054606E0FFF78AFCE7
:1019C000401B022801D90320B8E65C48006800F4F7
:1019D00080700028F2D000BFA068012808D15448C8
:1019E0006830006840F001005149683108601DE02E
:1019F000A06805280DD14E486830006840F004000A
:101A00004B49683108600846006840F001000860F2
:101A10000CE047486830006820F001004449683114
:101A200008600846006820F00400086000BFA06855
:101A3000A8B1FFF74FFC054609E0FFF74BFC401B40
:101A400041F28831884202D9032077E626E03848FF
:101A500068300068C0F340000028EED013E0FFF7C4
:101A600039FC054608E0FFF735FC401B41F28831A0
:101A7000884201D9032061E62D4868300068C0F330
:101A800040000028EFD1012E07D1294838300068E6
:101A900020F0805026493831086000BFA069B8B3F3
:101AA0002348006800F00C0008285ED0A0690228D6
:101AB00046D100201F490866FFF70CFC054606E0EA
:101AC000FFF708FC401B022801D9032036E618481E
:101AD00008380068C0F340600028F1D1D4E907015C
:101AE0000843616A40EA81110122A06AC2EB5000FA
:101AF00041EA00412C20005D41EA00600C49091FC9
:101B0000086001200B490866FFF7E4FB054607E083
:101B10002DE0FFF7DFFB401B022801D903200DE673
:101B2000034808380068C0F340600028F1D01EE088
:101B30000838024000004742800E474200700040D3
:101B400000200C490866FFF7C5FB054606E0FFF7D5
:101B5000C1FB401B022801D90320EFE506480068BD
:101B6000C0F340600028F2D101E00120E6E500204A
:101B7000E4E50000000047420038024010B504468A
:101B80000CB9012010BD022084F8510020680068C3
:101B900020F0400021680860204600F0FDF8002099
:101BA000606584F8510000BF84F8500000BF00BF9A
:101BB000E8E700000221014A116070471800002088
:101BC000F8B50446206846682068856805F040003E
:101BD00048B905F0010030B106F0400018B12046C8
:101BE000216C8847F8BD05F0020030B106F0800096
:101BF00018B12046616C8847F4E705F4B0700028FE
:101C000076D006F02000002872D005F04000F0B138
:101C100094F8510003280ED0606D40F00400606518
:101C200000BF002000902068C06800902068806895
:101C3000009000BF0BE000BF002000902068C0684B
:101C4000009020688068009000BF00BFCAE705F0E0
:101C5000200088B1606D40F00100606500BF002089
:101C600000902068806800902068006820F04000A4
:101C70002168086000BF00BF05F4807058B1606D36
:101C800040F00800606500BF002000902068806878
:101C9000009000BF00BF606D20B32068406820F056
:101CA000E00021684860012084F8510006F002003D
:101CB00010B906F00100B8B12068406820F00300B8
:101CC00021684860E06C28B10A48E16C0865E06C66
:101CD000FEF7B6FFA06C28B10648A16C0865A06CA1
:101CE000FEF7AEFF03E003E02046FFF763FF79E76E
:101CF00000BF77E75528000810B504460CB901204D
:101D000010BD606A00B900BFA06AB0F5005F00D1E5
:101D100000BF94F8510028B9002084F850002046F4
:101D200000F03CF8022084F851002068006820F0A0
:101D3000400021680860D4E901010843E1680843D4
:101D40002169084361690843218B01F4007108434C
:101D5000E1690843216A0843A16A084321680860D1
:101D60000421A06901EA1040616A084321684860C3
:101D7000A06AB0F5005F02D12168E06A08612068BE
:101D8000C06920F400602168C861002060650120FE
:101D900084F851000020B3E77047000010B586B00A
:101DA000044600BF002000907148006840F0010028
:101DB0006F4908600846006800F00100009000BF0D
:101DC00000BF00BF002000900846006840F00100FE
:101DD00008600846006800F00100009000BF00BFE6
:101DE00000BF002000900846006840F00100086035
:101DF0000846006800F00100009000BF00BF00BF6F
:101E0000002000905A481430006840F4805058492F
:101E1000143108600846006800F48050009000BF4C
:101E200000BF202001900220029000200390022099
:101E300004900520059001A94E48FFF74FF9402076
:101E400001900520059001A94A48FFF747F9802035
:101E500001900520059001A94648FFF73FF900BF12
:101E6000002005904248006840F480004049086026
:101E70000846006800F48000059000BF00BF3E489F
:101E80003E4908604FF08060486000213B48416255
:101E9000032181620021C162016340218160002130
:101EA000C1604FF480610161002141618161C161C4
:101EB0000162FEF7D9FE18B1DF2131A0FEF7F0FC78
:101EC0002E48FFF723F818B1E5212DA0FEF7E8FC16
:101ED00000BF2A48A064846300BF274830383049D7
:101EE00008604FF0C060486000212D484162032126
:101EF00081620021C16201638160C1604FF4806131
:101F00000161002141618161C1614FF400310162D1
:101F1000FEF7AAFE18B1FD2119A0FEF7C1FC20486A
:101F2000FEF7F4FF20B140F2031115A0FEF7B8FC54
:101F300000BF1B48E064846300BF002201213A20F7
:101F4000FFF767FA3A20FFF757FA002201213820FD
:101F5000FFF75FFA3820FFF74FFA00220121232014
:101F6000FFF757FA2320FFF747FA06B010BD00002D
:101F70003038024000000240406402401C0500204E
:101F80002E2E5C48415244574152455C4253505FAB
:101F90005350495C6273705F7370692E6300000078
:101FA0007C050020704770472DE9F04704460E4637
:101FB00017461D464FF00008C146C24600BF94F8C0
:101FC0005000012802D10220BDE8F087012084F8EA
:101FD000500000BF94F85180D4F80490B8F1010F7C
:101FE0000AD0B9F5827F04D1A06810B9B8F1040F06
:101FF00002D04FF0020A7AE00EB107B115B94FF0E6
:10200000010A74E094F85100012802D1052084F8F7
:102010005100002060652663A586E586A763A58735
:10202000E58720646064A06AB0F5005F0ED100BF50
:10203000206800684DF6FF7108402168086020683C
:10204000006840F400502168086000BF94F8510017
:10205000042806D12948E16C08642948E16CC8636A
:1020600005E02848E16C08642748E16CC86327480C
:10207000E16CC8640020E16C0865E38FD4F800C00F
:102080000CF10C01A26BE06CFEF7B6FF2068406813
:1020900040F00100216848600020A16C0864A16C38
:1020A000C863A16CC864A16C0865E38ED4F800C055
:1020B0000CF10C02216BA06CFEF79EFF20680068FB
:1020C00000F04000402805D02068006840F0400043
:1020D000216808602068406840F02000216848605E
:1020E0002068406840F002002168486000BF00BFDF
:1020F000002084F8500000BF504665E79128000892
:10210000AD2800089F2800086329000869280008F6
:102110000121014A1160704718000020704770B516
:1021200004462546681EB0F1807F01D301200FE0F0
:10213000681E4FF0E02148610F214FF0FF3000F0A2
:102140000FFB00204FF0E02188610720086100208C
:1021500070BD10B504460CB9012010BD94F83D00C7
:1021600028B9002084F83C00204600F00CF802203A
:1021700084F83D00211D206800F0E2FD012084F874
:102180003D000020E9E770470146022081F83D004C
:102190000868006840F001000A681060012081F8BA
:1021A0003D0000207047704701460022002391F84F
:1021B000392091F83A3042EA030070472DE9F047A0
:1021C0000446206805682068C668206847694FF0A3
:1021D0000008C14605F00F08B8F1000F0AD105F05C
:1021E000200038B106F0200020B1204600F02AFE81
:1021F000BDE8F087B8F1000F6DD007F0010018B905
:1022000006F49070002866D005F0010030B106F4A5
:10221000807018B1E06B40F00100E06305F004004D
:1022200030B107F0010018B1E06B40F00200E0634C
:1022300005F0020030B107F0010018B1E06B40F08A
:102240000400E06305F0080030B107F0010018B1A8
:10225000E06B40F00800E063E06B68B305F020003D
:1022600028B106F0200010B1204600F0EBFD2068F8
:102270004069C0F38019E06B00F0080010B9B9F1B3
:10228000000F22D0204600F0BDFD2068406900F01C
:102290004000B0B12068406920F0400021684861EA
:1022A000606B50B11748616B0865606BFEF7C8FC46
:1022B00010B1606B016D88470CE02046FFF773FF9B
:1022C00008E02046FFF76FFF04E02046FFF76BFFB2
:1022D0000020E0638CE705F0800030B106F080005C
:1022E00018B1204600F0B0FF82E705F0400030B1A1
:1022F00006F0400018B1204600F094FD78E700BFDA
:1023000076E70000F12D000810B504460CB9012055
:1023100010BDA06900B100E000BF94F8390028B9F1
:10232000002084F83800204600F028F8242084F8A3
:1023300039002068C06820F400502168C860204639
:1023400000F0CEFD2068006920F49040216808610B
:102350002068406920F02A00216848612068C06830
:1023600040F400502168C8600020E063202084F819
:10237000390084F83A000020CAE7000010B586B0A2
:1023800004466549206888423ED100BF0020009085
:102390006248006840F00100604908600846006833
:1023A00000F00100009000BF00BF00BF00200090BF
:1023B0005A481430006840F0200058491431086031
:1023C0000846006800F02000009000BF00BFC8145D
:1023D0000190022002900120039002200490082026
:1023E000059001A94E48FEF779FE4FF48050019008
:1023F00001A94B48FEF772FE4720FEF7FDFF0322BE
:1024000011464720FFF705F84649206888423ED12B
:1024100000BF002000904148006840F001003F49A3
:1024200008600846006800F00100009000BF00BF8F
:1024300000BF0020009039481430006840F01000C0
:102440003649143108600846006800F0100000901A
:1024500000BF00BF481501900220029001200390A8
:10246000022004900720059001A92D48FEF736FEB2
:102470004FF48060019001A92948FEF72FFE252026
:10248000FEF7BAFF022203212520FEF7C2FF2649EC
:10249000206888423DD100BF002000901F4800689E
:1024A00040F001001D4908600846006800F0010086
:1024B000009000BF00BF00BF002000901748103000
:1024C000006840F400301549103108600846006883
:1024D00000F40030009000BF00BF042001900220F3
:1024E000029001200390022004900720059001A98A
:1024F0000B48FEF7F3FD0820019001A90848FEF7FC
:10250000EDFD2620FEF778FF012203212620FEF7AD
:1025100080FF06B010BD00000014014030380240BA
:1025200000000240001001400044004010B5034686
:1025300093F83A00202829D101B10AB9012010BD31
:1025400000BF93F83800012801D10220F7E70120ED
:1025500083F8380000BF99629A85DA850020D86335
:10256000222083F83A0000BF002083F8380000BF23
:102570001868406940F001001C6860611868C06814
:1025800040F490701C68E0600020D8E70220D6E795
:10259000604A0168914239D15F49098801F40041DC
:1025A00000290BD15C49098801F4804171B15B4974
:1025B00009780A2903D00021574A1180A8E056491A
:1025C000098841F40041544A1180A1E05349097837
:1025D0000D2906D15049098841F480414E4A1180A5
:1025E00096E04E4909784C4A1288C2F30D024C4BD2
:1025F000995449490988491C474A1180114609885C
:10260000B1F5805FDADB0021118081E0454A016885
:10261000914241D1444909783C2903D14FF480418A
:10262000424A11804149098801F4004100296FD1D3
:102630003E49098801F48041002969D03A49097866
:102640003E2912D13949098841F40041374A1180A5
:10265000354909781288C2F30D02354B9954334934
:102660000988491C314A118052E02F4909782F4AC4
:102670001288C2F30D022E4B99542C490988491C2B
:102680002A4A118011460988C1F30D01B1F5805F16
:102690003EDB002111803BE0264A0168914237D1A0
:1026A0002549098801F4004191BB2349098801F4B7
:1026B000804171B1214909780A2903D000211E4ABD
:1026C000118025E01C49098841F400411A4A118013
:1026D0001EE01A4909780D2906D11749098841F4E5
:1026E0008041154A118013E014490978124A128872
:1026F000C2F30D02124B99540F490988491C0E4A26
:10270000118011460988B1F5805F01DB002111803D
:102710007047000000140140640000206A0000209F
:1027200068260020001001406B0000206600002099
:102730006836002000440040680000206C00002043
:1027400068460020704700BFFEE700BFFEE7704705
:1027500002480068C0F30220704700000CED00E062
:1027600010B5002807DA0A07140E054A00F00F0317
:102770001B1FD45403E00A07130E024A135410BD62
:1027800018ED00E000E400E0704710B50320FEF70C
:10279000D5F808B9012010BD0020FCE710B50420D1
:1027A000FEF7CCF808B9012010BD0020FCE710B5F9
:1027B0000520FEF7C3F810BD10B50620FEF7BEF8E1
:1027C00008B9012010BD0020FCE7000038B50E4814
:1027D000008800F40040B0B10B480088C0F30D043D
:1027E0004FF480610948FDF72DFD6A460749084806
:1027F00001F084FC009818B1044906A000F0BAFD6D
:1028000000200149088038BD660000207C000020BF
:102810006836002025730D0A0000000010B502483C
:10282000FFF7CEF910BD0000C4040020F8B504463F
:102830000D4616462B46002280212046009600F0C9
:10284000E4F828B1606D40F0200060650320F8BD19
:102850000020FCE770B50546AC6B0020E087E08601
:102860002046FFF7A7F970BD70B50546AC6B206830
:10287000406820F0030021684860606D40F010005F
:102880006065012084F851002046FFF793F970BD80
:1028900070B50446A56B2846FFF785FB70BD70B583
:1028A0000446A56B2846FFF739FC70BD7CB505468C
:1028B000AC6B002600200190FEF70CFD0646286850
:1028C000006800F48070002846D1A06AB0F5005F6F
:1028D00011D16423012211462046009600F095F89C
:1028E00018B1606D40F0020060652068C06880B279
:1028F0000190BDF804002068406820F003002168C2
:1029000048606068B0F5827F0DD1A068B0F5004FD7
:1029100003D0A068B0F5806F05D12068006820F072
:102920004000216808600020E087012084F8510001
:102930002068806800F01000102807D1606D40F01A
:10294000020060654FF6EF7021688860606D18B115
:102950002046FFF72FF97CBD2046FFF723FB00BF81
:10296000F9E77CB50546AC6B002600200190FEF728
:10297000B1FC06462868006800F4807000283FD14A
:10298000A06AB0F5005F11D16423012211462046F0
:10299000009600F03AF818B1606D40F002006065F2
:1029A0002068C06800B20190BDF90400324664217D
:1029B0002046FFF73BFF18B1606D40F020006065D6
:1029C0002068406820F00300216848600020E0860D
:1029D000E087012084F851002068806800F0100032
:1029E000102807D1606D40F0020060654FF6EF706F
:1029F00021688860606D18B12046FFF7DBF87CBD68
:102A00002046FFF785FB00BFF9E72DE9F0410446BA
:102A10000E4617461D46DDF818803FE0681CE0B3FF
:102A20002DB1FEF757FCA0EB0800A84236D3206872
:102A3000406820F0E000216848606068B0F5827F5F
:102A40000DD1A068B0F5004F03D0A068B0F5806F3D
:102A500005D12068006820F0400021680860A06A65
:102A6000B0F5005F0ED100BF206800684DF6FF7121
:102A70000840216808602068006840F40050216820
:102A8000086000BF012084F8510000BF002084F8D6
:102A9000500000BF0320BDE8F081FFE72068806898
:102AA0003040B04201D1012000E00020B842B5D151
:102AB0000020F0E77047000010B5FEF74BFC04481B
:102AC000007800B910BD00F005F800BFFAE700007B
:102AD0003800002010B51B48006840B11948006854
:102AE000401E1849086010B90120174908700024D9
:102AF00008E004EB4401154A02EB810001F0FDF807
:102B0000601CC4B2042CF4DB11480068401C10495E
:102B10000860084600686FF00041884202D100203A
:102B20000B49086001F0E8F80A480078401CC0B280
:102B3000084908700A2803DB0020087001F0D8F863
:102B400010BD00002C00002030000020DC250020FB
:102B5000340000203900002000B593B0302107A8D0
:102B6000FDF770FB142102A8FDF76CFB00BF0020ED
:102B700001902648006840F08050244908600846CB
:102B8000006800F08050019000BF00BF00BF00202F
:102B900001901F48006840F440401D490860084605
:102BA000006800F44040019000BF00BF0220079081
:102BB00001200A9010200B9002200D9000210E9110
:102BC00008210F9164211091022111910421129189
:102BD00007A8FEF7AFFD18B11F210EA0FDF760FE9C
:102BE0000F20029002200390002004904FF48050A8
:102BF000059000200690032102A8FEF75DFC18B1A5
:102C00002D2104A0FDF74CFE13B000BD403802405A
:102C1000007000402E2E5C53595354454D5C73791F
:102C2000735C7379732E63001448006840F470007D
:102C3000124908601248006840F00100104908601D
:102C400000200F49083108600D4800680D49084010
:102C50000B4908600C48091D0860081F006820F433
:102C60008020091F0860002005490C3108604FF0E2
:102C700000600249803908607047000088ED00E07C
:102C800000380240FFFFF6FE1030002470B500252A
:102C900000264FF08044206900F00205E06800F053
:102CA00002065DB156B14FF6FD702061E0684FF647
:102CB000FD710840E0601E4800688047206900F010
:102CC0000405E06800F004065DB156B14FF6FB70F4
:102CD0002061E0684FF6FB710840E060154800682D
:102CE0008047206900F00805E06800F008065DB143
:102CF00056B14FF6F7702061E0684FF6F771084063
:102D0000E0600D4800688047206900F01005E06829
:102D100000F010065DB156B14FF6EF702061E0682B
:102D20004FF6EF710840E06004480068804770BDCE
:102D30001C0000202000002024000020280000208B
:102D400000220268234B98420BD0B0F1804F08D08C
:102D5000214B984205D0214B984202D0204B9842FB
:102D600001D1012300E000231BB122F070024B6867
:102D70001A43184B984214D0B0F1804F11D0164B23
:102D800098420ED0154B98420BD0154B984208D064
:102D9000144B984205D0144B984202D0134B9842E2
:102DA00001D1012300E000231BB122F44072CB6863
:102DB0001A4302608B68C3620B688362054B9842BA
:102DC00001D1012300E000230BB10B690363012350
:102DD00043617047000001400004004000080040CB
:102DE000000C004000400140004401400048014008
:102DF00070B50546AC6B0020E085E0842046FFF707
:102E0000D2F970BD0168C96821F490710268D1607F
:102E10000168496921F0010102685161202180F8AF
:102E20003A10704710B504462068C06820F0400092
:102E30002168C860202084F839002046FFF782FC12
:102E4000002010BD70B5044694F83A00222844D101
:102E5000A068B0F5805F13D1A56A206940B92068E9
:102E60004068C0F308002880A06A801CA06219E0B6
:102E700020684068C0B22880A06A401CA06211E0AF
:102E8000206938B920684068C1B2A26A501CA062AB
:102E9000117007E02068406800F07F01A26A501CB2
:102EA000A0621170E08D401E80B2E08598B9206864
:102EB000C06820F490702168C8602068406920F0E4
:102EC000010021684861202084F83A002046FFF77D
:102ED0005FFB002070BD0020FCE70220FAE7000045
:102EE0002DE9F041044600252068056925F4405588
:102EF000E0680543206805612068C56849F20C60F8
:102F000085432169A068084361690843E169084372
:102F100005432068C5602068456925F44075A069AF
:102F2000054320684561E069B0F5004F7ED1C44992
:102F30002068884203D0C349206888425DD1FEF7EB
:102F400091FB00EBC00101EB001061684900B0FB90
:102F5000F1F06421B0FBF1F00601FEF783FB00EB1A
:102F6000C00101EB001061684900B0FBF1F7FEF70A
:102F700079FB00EBC00101EB001061684900B0FB78
:102F8000F1F06421B0FBF1F000EBC00101EB0010A7
:102F9000A7EB8000322101EBC0006421B0FBF1F00F
:102FA00000F0F80006EB4006FEF75CFB00EBC0010A
:102FB00001EB001061684900B0FBF1F7FEF752FB2E
:102FC00000EBC00101EB001061684900B0FBF1F0BB
:102FD0006421B0FBF1F000EBC00101EB0010A7EBA6
:102FE0008000322101EBC0006421B0FBF1F000F061
:102FF000070030442168886020E1FEF723FB00EBE6
:10300000C00101EB001061684900B0FBF1F06421E0
:10301000B0FBF1F00601FEF715FB00EBC00101EB80
:10302000001061684900B0FBF1F700E045E0FEF7F1
:1030300009FB00EBC00101EB001061684900B0FB27
:10304000F1F06421B0FBF1F000EBC00101EB0010E6
:10305000A7EB8000322101EBC0006421B0FBF1F04E
:1030600000F0F80006EB4006FEF7ECFA00EBC001BA
:1030700001EB001061684900B0FBF1F7FEF7E2FADE
:1030800000EBC00101EB001061684900B0FBF1F0FA
:103090006421B0FBF1F000EBC00101EB0010A7EBE5
:1030A0008000322101EBC0006421B0FBF1F000F0A0
:1030B0000700304421688860C0E061492068884288
:1030C00003D06049206888425CD1FEF7CBFA00EB60
:1030D000C00101EB001061688900B0FBF1F6FEF75A
:1030E000C1FA00EBC00101EB001061688900B0FB80
:1030F000F1F06421B0FBF1F000EBC00101EB001036
:10310000A6EB8000322101EB00106421B0FBF1F04E
:1031100000F0F006FEF7A6FA00EBC00101EB00108C
:1031200061688900B0FBF1F06421B0FBF1F006EBBF
:103130000016FEF797FA00EBC00101EB0010616882
:103140008900B0FBF1F7FEF78DFA00EBC00101EB4F
:10315000001061688900B0FBF1F06421B0FBF1F070
:1031600000EBC00101EB0010A7EB8000322101EB66
:1031700000106421B0FBF1F000F00F003044216832
:1031800088605BE0FEF75EFA00EBC00101EB001027
:1031900061688900B0FBF1F6FEF754FA00EBC0015C
:1031A00001EB001061688900B0FBF1F06421B0FB15
:1031B000F1F000EBC00101EB0010A6EB8000322122
:1031C00001EB00106421B0FBF1F000F0F006FEF717
:1031D00039FA00EBC00101EB001061688900B0FB17
:1031E000F1F06421B0FBF1F006EB0016FEF72AFACD
:1031F00000EBC00101EB001061688900B0FBF1F742
:10320000FEF720FA00EBC00101EB001061688900B5
:10321000B0FBF1F06421B0FBF1F000EBC00101EB79
:103220000010A7EB8000322101EB00106421B0FBFD
:10323000F1F000F00F00304421688860BDE8F081B3
:103240000010014000140140014691F83900212886
:103250002CD18868B0F5805F0FD10A6A1088C0F35E
:1032600008000B685860086918B9086A801C086271
:1032700009E0086A401C086205E00B6A581C0862F5
:1032800018780B685860C88C401E80B2C88458B942
:103290000868C06820F080000B68D8600868C068C3
:1032A00040F040000B68D860002070470220FCE727
:1032B00010B500240C48FEF781FF00BF01E0641C3C
:1032C00000BF0948FEF770FF2028F8D100BF002496
:1032D00001E0641C00BF012204490348FFF726F9FE
:1032E0000028F6D100BF10BD685600206B000020FA
:1032F00010B500240C48FEF761FF00BF01E0641C1C
:1033000000BF0948FEF750FF2028F8D100BF002475
:1033100001E0641C00BF012204490348FFF706F9DD
:103320000028F6D100BF10BDE85600206C00002038
:1033300010B500240C48FEF741FF00BF01E0641CFB
:1033400000BF0948FEF730FF2028F8D100BF002455
:1033500001E0641C00BF012204490348FFF7E6F8BE
:103360000028F6D100BF10BDA85600206A0000203A
:1033700000BFFEE70FB4054B10B503A9044A02983D
:1033800000F02EF810BC5DF814FB00004940000866
:10339000600000200FB4084B10B504A902AA0398DE
:1033A00000F01EF8044602A9002000F0BAF92046F9
:1033B00010BC5DF814FB00002337000802E008C8C9
:1033C000121F08C1002AFAD170477047002001E09F
:1033D00001C1121F002AFBD1704780F3108870478B
:1033E0002DE9FF4F8BB088460546002606E02528CC
:1033F0000BD0DDE90D1290476D1C761C2878002853
:10340000F5D10FB03046BDE8F08F0024A146A246AA
:103410000122AE4900E0044315F8013F203B02FAC7
:1034200003F00842F7D128782A2810D06FF02F0235
:103430002878A0F13001092915D809EB890102EBA0
:10344000410144F0020400EB01096D1CF0E758F85B
:10345000041B5FEA010903D544F40054C9F10009D3
:1034600044F002046D1C28782E2817D115F8010F9E
:1034700044F004042A280ED06FF02F022878A0F11F
:10348000300109290AD80AEB8A0102EB410100EB5D
:10349000010A6D1CF2E758F804AB6D1C28786C2803
:1034A0000FD006DC4C2817D068280DD06A2814D11C
:1034B00004E0742810D07A280FD10DE044F40014F1
:1034C0000AE044F4801401E044F440146978814235
:1034D00002D104F580146D1C6D1C2878692865D014
:1034E00006DC00288DD0632827D0642806D15DE053
:1034F0006E2808D073282AD0752877D0DDE90D1200
:103500009047761CE0E0C4F30250022809D003285B
:103510000DD0D8F8001004280DD00E6008F1040872
:10352000D2E0D8F80010F217C1E90062F6E7D8F847
:1035300000100E80F2E70E70F0E718F8041B8DF80B
:10354000001000208DF80100EB46012003E058F840
:1035500004BB4FF0FF3061074FF0000701D40AE0D1
:103560007F1C57450DDA8742FADB1BF8071000294C
:10357000F6D106E07F1C8742FCDB1BF80710002910
:10358000F8D1DDE90D23A9EB07008146214600F0C3
:10359000B1F83044C61904E0DDE90D121BF8010B47
:1035A00090477F1EF8D22146484688E058F8040B21
:1035B000C4F302514FF00A0B032900D100B20429D1
:1035C00000D140B2002802DA40422D2102E021055C
:1035D00005D52B218DF82410012104E006E0E10738
:1035E00010D02021F6E708AF089113E058F8040B3B
:1035F000C4F302514FF00A0B032900D180B2042911
:1036000000D1C0B20021EEE75946FCF737FE303159
:1036100007F8011D0028F7D1ADEB070000F1200BE2
:10362000600702D524F4803401E04FF0010ADA4546
:1036300002DDAAEB0B0000E00020824600EB0B014C
:1036400008980144A9EB01000A90E00306D4DDE9E3
:103650000D2321460A9800F04DF806444FF000096A
:1036600008E009A911F80900DDE90D12904709F1F8
:103670000109761C08998945F3DBE0030CD5DDE9E7
:103680000D2321460A9800F035F8064404E0DDE9F0
:103690000D1230209047761CBAF10001AAF1010A00
:1036A000F5DC05E0DDE90D1217F8010B9047761CFB
:1036B000BBF10001ABF1010BF4DC0A982146DDE916
:1036C0000D2300F005F806446D1C97E6092801005B
:1036D0002DE9F041044600251E461746880404D40F
:1036E00005E039462020B0476D1C641EF9D52846F8
:1036F000BDE8F0812DE9F041044600251E469046C4
:10370000C80301D5302700E02027880404D505E050
:1037100041463846B0476D1C641EF9D52846BDE8C1
:10372000F0810A68531C0B60107070471FB50020B1
:1037300000900190029003905348544908604FF460
:1037400080304860002151488160012101610021E1
:1037500081610121016241620021C1624C498162A3
:103760000021C1600A21C161002101630121416181
:10377000FDF7BEF918B1202146A0FDF791F8002011
:103780000090012001900320029069463F48FDF718
:10379000E5F818B12A213FA0FDF782F8012000903A
:1037A0000220019069463948FDF7D8F818B1332155
:1037B00038A0FDF775F802200090032001906946BB
:1037C0003248FDF7CBF818B13C2132A0FDF768F87C
:1037D000032000900420019069462C48FDF7BEF8B4
:1037E00018B145212BA0FDF75BF8082000900520BB
:1037F000019069462548FDF7B1F818B14E2125A082
:10380000FDF74EF8092000900620019069461F48F8
:10381000FDF7A4F818B157211EA0FDF741F80A20C2
:1038200000900720019069461848FDF797F818B1F5
:10383000602118A0FDF734F80B20009008200190BB
:1038400069461248FDF78AF818B1692111A0FDF701
:1038500027F80C2000900920019069460B48FDF7DD
:103860007DF818B172210BA0FDF71AF80D20009019
:103870000A20019069460548FDF770F818B17B21D0
:1038800004A0FDF70DF81FBD002001407C040020BE
:103890000100000F2E2E5C48415244574152455CB6
:1038A0004253505F4144435C6273705F6164632EB6
:1038B0006300000010B5044604B910BD012C00D10E
:1038C00002240120FFF789FD09480460002009490E
:1038D0000870FFF782FD06E000F098F805480078D0
:1038E000012800D100E0F7E700BF00BFE5E70000D6
:1038F0002C0000203000002000B587B0142102A861
:10390000FCF7A0FC00BF002001903B48006840F09D
:103910000100394908600846006800F00100019084
:1039200000BF00BF00BF002001900846006840F0C3
:10393000040008600846006800F00400019000BF21
:1039400000BF00BF002001900846006840F008005A
:1039500008600846006800F00800019000BF00BF42
:10396000202002900120039000200490059002A9DD
:103970002248FDF7B3FB4020029002A91F48FDF743
:10398000ADFB8020029002A91C48FDF7A7FB4FF475
:103990008070029002A91A48FDF7A0FB01221102D3
:1039A0001748FDF791FC4FF48070029000200390BF
:1039B0000120049002A91148FDF790FB4FF400701C
:1039C000029002A90D48FDF789FB0120029000201A
:1039D00003900220049002A90A48FDF77FFB04200F
:1039E0000290002003900120049002A90648FDF7F0
:1039F00075FB07B000BD00003038024000080240EF
:103A00000004024000000240000C024010B500F02B
:103A10001FF910BDF0B591B0402101A8FCF712FCD0
:103A20004FF0804500BF002000901F48006840F024
:103A300001001D4908600846006800F00100009080
:103A400000BF00BF1948006847081948B7FBF0F0ED
:103A5000401E86B2B5F1804F02D01648854202D191
:103A60004FF0FF3401E04FF6FF7401950296049485
:103A700000210591039106918021079101A8FEF78D
:103A800068FB20B140F206210BA0FCF709FF0222DF
:103A900000211C20FDF7BDFC1C20FDF7ADFC01A89A
:103AA000FEF772FB11B0F0BD40380240000000206C
:103AB00040420F00000C00402E2E5C4841524457FB
:103AC0004152455C4253505F54696D65725C62734C
:103AD000705F74696D65722E6300000010B5002080
:103AE0000349087000220121082000F003F810BDEE
:103AF0001400002070B506460C4615461D480068A7
:103B0000B04208D11C480068A04204D11B4800689C
:103B1000A84200D170BD17480660174804601748D6
:103B200005601748174908600846C6610021816092
:103B300044610561C1600162416281620721C16225
:103B40004FF4007181614FF482700E49486008465D
:103B5000FEF714F818B196210BA0FCF7A1FE094856
:103B6000FEF7CAF818B19C2107A0FCF799FE00BF28
:103B7000D0E7000004000020080000200C00002016
:103B800000300140C40400202E2E5C4841524457AE
:103B90004152455C4253505F5350495C6273705FC1
:103BA0007370692E6300000070B5002416E00020D9
:103BB00004EB4401214A02EB8101486004EB44011B
:103BC00002EB8101886004EB440102EB8101487043
:103BD00004EB440102F82100601CC4B2042CE6DBB3
:103BE000174800684FF47A72B0FBF2F1481EB0F14A
:103BF000807F00D31BE0481E4FF0E0225061501739
:103C00000F22002807DA13071E0E0E4B00F00F05D7
:103C10002D1F5E5503E013071D0E0B4B1D5400BFF7
:103C200000204FF0E02290610720106100BF0120CA
:103C300006490870FFF7EEFE70BD0000DC2500208D
:103C40000000002018ED00E000E400E03800002053
:103C500010B50248FDF76CFB10BD00005C2600208B
:103C600070B504460D46064806490860084644609B
:103C70008560FDF735FB0348FDF761FB70BD000073
:103C8000003000405C26002010B500F0B3F902239C
:103C90000B4A0C490C4800F079F802230B4A0C49F6
:103CA0000C4800F073F802230B4A0C490C4800F052
:103CB0006DF802230B4A0C490C4800F067F810BD60
:103CC000890400088B2700080C260020AD0400089A
:103CD0009D27000820260020D1040008AF270008F7
:103CE00034260020F5040008B927000848260020E3
:103CF00010B500F09BF910BD7047416851B14168A3
:103D0000491E416031B9012141700178012901D179
:103D1000816841607047000010B50F480068B0F539
:103D2000805F00D910BD00200C4908600A48008857
:103D300083B20B4A0B490C48FEF736F920B140F22A
:103D400033110AA0FCF7ACFD00BF0448006800284E
:103D5000FBD000BFE6E700001000002018000020A4
:103D6000DC150020DC050020C40400202E2E5C4859
:103D7000415244574152455C4253505F5350495C55
:103D80006273705F7370692E630000002DE9F0416B
:103D900004460D4616461F4614212046FCF752FAEB
:103DA0000020A071E560E0688047217A60F3C301DC
:103DB00021722661204600F023F9BDE8F08170B53C
:103DC0000446E06880470546E079C0F30210002809
:103DD00002DDA088401CA080207AC0F3C000A84269
:103DE00012D0207A401C217A60F30201217201F086
:103DF000070003280CDB207A65F3C3002072207AC9
:103E000020F00700207203E0207A20F007002072E3
:103E1000A571E079C0F30210062823D2DFE800F094
:103E2000032350A6E8C6207AC0F3C000C0B1A07931
:103E300040F00200A071A07900F0020018B1A17951
:103E40002046226990470020A080E07920F00F00F2
:103E5000401CE071E07920F070001030E07101E06A
:103E6000A079A071C4E0207AC0F3C00098B9A0790D
:103E700040F00400A071A07900F0040018B1A1790D
:103E80002046226990470020A080E07920F0700051
:103E90002030E07113E0A088962810DDA07940F072
:103EA0004000A071A07900F0400018B1A17920462F
:103EB00022699047E07920F070005030E07197E07F
:103EC000207AC0F3C00070B3A07940F00200A07166
:103ED000A07900F0020018B1A1792046226990472C
:103EE000E079401CE17960F30301E171E07900F0D1
:103EF0000F00022807D1A07900F0200018B1A179A5
:103F0000204622699047A07900F0080018B1A179F5
:103F10002046226990470020A080E07920F07000C0
:103F20003030E07121E0A08802281EDDE07900F049
:103F30000F0001280CD1A07940F01000A071A079E9
:103F400000F0100068B1A17920462269904708E08E
:103F5000E07900F00F00022803D1A07940F02000A2
:103F6000A071E07920F07000E07141E0207AC0F3A8
:103F7000C000D0B9A07940F00400A071A07900F091
:103F8000040018B1A179204622699047A088022830
:103F900007DA0020A080E07920F070002030E07186
:103FA00003E0E07920F07000E07121E0207AC0F3B6
:103FB000C00060B1A07940F08000A071A07900F04D
:103FC0008000A0B1A1792046226990470FE0A07936
:103FD00040F00400A071A07900F0040018B1A179AC
:103FE000204622699047E07920F07000E07100BF20
:103FF00000BF70BD00200149086070475C000020D0
:1040000001460948026805E08A4202D14FF0FF30BC
:1040100070471268002AF7D1034800680860024818
:1040200001600020F4E700005C00002010B50548A6
:10403000046803E02046FFF7C2FE2468002CF9D193
:1040400010BD00005C00002000BF054A126802F0AD
:104050004002002AF9D0C2B2014B5A6070470000FA
:1040600000100140002414201E490860FDF77EF96D
:10407000FDF712F8FEF770FD4FF4E131012000F07A
:104080007DF8FFF753FBFFF737FCFFF727FDFFF73E
:104090008BFDFFF7F9FD40F271210420FFF7E0FDF1
:1040A00011A0FFF767F91BE0FEF790FBFFF7AEFCEE
:1040B0000020FCF7D9F90120FCF7D6F90220FCF723
:1040C000D3F9002406E00C480555681CC5B2FFF77B
:1040D00023FE641C142CF6DB00256420FFF7EAFBAA
:1040E000E2E70000100000204F4C50205379737419
:1040F000656D204F4B0D0A00DC0500202DE9F041D5
:1041000004460F4615460020286020783C281BD125
:104110006078432818D120795F2815D1E178A078FC
:10412000303800EB800001EB4000303800F0FF0831
:10413000B8F1010F05D12A4639462046FCF7D2FADC
:1041400014E00020286011E02A4639462046FCF79A
:10415000ABFB0646002E08DA002605A00168396090
:1041600041687960007A387209262E60BDE8F081D6
:104170003C434D445F4552523E00000070B504463A
:104180000D46062C13D1204820490860084645609A
:1041900000218160C160016181610C214161FEF7F4
:1041A000B3F801221A491948FEF7C0F92AE0012C98
:1041B00013D11848184908600846456000218160FD
:1041C000C160016181610C214161FEF79DF801220E
:1041D00012491148FEF7AAF914E0022C12D1104836
:1041E000104908600846456000218160C160016196
:1041F00081610C214161FEF787F801220A490948D3
:10420000FEF794F970BD000000140140A85600208C
:104210006A00002000100140685600206B0000205A
:1042200000440040E85600206C0000200000000020
:104230000043000801000000444300081D05000879
:1042400001000000F84200080100000018430008C7
:104250004D05000802000000EC42000804000000C8
:10426000384300087905000803000000E042000818
:104270000100000008430008650600080400000073
:10428000D44200080400000024430008E9050008A7
:1042900005000000484300080000000048430008F3
:1042A0000000000000000000000000000102030404
:1042B0000607080900000000010203042000400076
:1042C0008000000100020100040000010006101639
:1042D000000610163C48454C50414C4C5F3F3E0098
:1042E0003C48454C505F3F3E000000005B4441436A
:1042F0005F2A2A5F2A2A5D005B5354415F3F5D00BD
:104300005B52455345545D0068656C7020646F6373
:10431000756D656E74000000D7B4CCACB2E9D1AF56
:1043200000000000B3A7BCD2C4DAB2BFC3FCC1EE28
:10433000B2E9D1AF00000000B6C1C8A1414443B505
:10434000C4D6B500B8B4CEBB000000006C43000872
:10435000000000207C000000BC330008E843000897
:104360007C000020AC5A0000CC3300080024F4008C
:10437000000000000000000000000000000000003D
:10438000000000000000000000000000000000002D
:10439000000000000000000000000000000000001D
:1043A0000000000000000000000802400008024079
:1043B00000080240000802400008024000000240DD
:1043C000000C024000040240000000000000000059
:1043D00000000000000000000000000000000000DD
:0843E0001000000001000000C4
:040000050800019955
:00000001FF
