:020000040800F2
:10000000885900203D020008532600084B260008AE
:100010004F260008110700082D32000800000000DC
:10002000000000000000000000000000712900082E
:100030003F080008000000008D2600087529000810
:10004000570200085702000857020008570200082C
:10005000570200085702000857020008570200081C
:10006000570200085702000857020008570200080C
:1000700057020008570200085702000857020008FC
:10008000570200085702000857020008000000004D
:1000900000000000000000000000000057020008FF
:1000A00057020008570200085702000857020008CC
:1000B000492B0008570200085702000857020008A1
:1000C000570200085702000857020008D926000806
:1000D000570200086D310008AD3100080000000033
:1000E00057020008570200085702000800000000ED
:1000F000000000000000000000000000570200089F
:1001000000000000570200085702000857020008CC
:1001100000000000000000000000000000000000DF
:1001200015070008570200082507000857020008B5
:10013000570200080000000000000000000000005E
:10014000000000000000000000000000570200084E
:10015000570200085702000857020008ED31000856
:1001600057020008570200080000000000000000CD
:10017000000000000000000000000000000000007F
:10018000000000005702000800000000000000000E
:10019000570200085702000800F002F800F03EF88D
:1001A0000AA090E8000C82448344AAF10107DA45D2
:1001B00001D100F033F8AFF2090EBAE80F0013F0E6
:1001C000010F18BFFB1A43F001031847103B000052
:1001D000303B0000103A24BF78C878C1FAD85207E3
:1001E00024BF30C830C144BF04680C6070470000B1
:1001F0000023002400250026103A28BF78C1FBD830
:10020000520728BF30C148BF0B60704700207047BD
:100210001FB503F045FD1FBD10B510BD00F040F93E
:100220001146FFF7F5FF03F0A5FC00F05EF903B4FB
:10023000FFF7F2FF03BC02F0FEFF00000948804711
:1002400009480047FEE7FEE7FEE7FEE7FEE7FEE7B8
:10025000FEE7FEE7FEE7FEE704480549054A064BD0
:1002600070470000E52A0008990100088853002023
:10027000885900208855002088550020704753EA8F
:10028000020C00F069802DE9F04B4FF00006002BC6
:100290001FBFB3FA83F503FA05F424FA05F65E40AE
:1002A00012BF1643B2FA82F502FA05F4C5F1200531
:1002B0001EBF22FA05FC44EA0C04203556EA044C21
:1002C0004FEA144418BF641C4FF000084FF00009B7
:1002D000904271EB030C39D3002919BFB1FA81F7B1
:1002E00001FA07F6B0FA80F700FA07F6C7F120071F
:1002F0001EBF20FA07FC46EA0C062037B6FBF4FCCA
:10030000A7EB0507103F07F01F0BCBF120060CFAF7
:100310000BFB2CFA06F644BFB3460026202FA4BFE1
:100320005E464FF0000B5BEA060C08BF4FF0010B76
:1003300019EB0B09ABFB027C48EB0608C01B06FB64
:1003400002CC0BFB03CC71EB0C01C1E70B46024660
:1003500041464846BDE8F08B13B54FF000004FF022
:100360000001AFF30080BDE81C4070470FB40449A2
:1003700010B503AA029800F065F810BC5DF814FBF4
:10038000600000202DE9F0410E4604460020206266
:100390002046E168884730B3252805D0D4E90121FB
:1003A0009047206A401CF2E7E16820460027884712
:1003B000050018D0A5F14100192802D820354FF4C6
:1003C00000673246294620462760FFF71FFF40B1ED
:1003D000012804D0F61D26F007060836D8E7361D9A
:1003E000D6E72846DAE7206ABDE8F0814FF0000240
:1003F00000B5134694469646203922BFA0E80C501B
:10040000A0E80C50B1F12001BFF4F7AF090728BFF5
:10041000A0E80C5048BF0CC05DF804EB890028BF71
:1004200040F8042B08BF704748BF20F8022B11F09A
:10043000804F18BF00F8012B704770477047704716
:1004400070470000074B70B50D467B4400F011F873
:100450000446284600F020F810B14FF0FF3070BD80
:10046000204670BD0B37000001694A1C0261087804
:10047000704700B58FB0CDE90131002105910549E4
:100480007944CDE9031011466846FFF77BFF0FB0B2
:1004900000BD0000E5FFFFFF007B00F0800070471B
:1004A000754600F02BF8AE4605006946534620F02D
:1004B0000700854618B020B5FFF7CEFEBDE8204006
:1004C0004FF000064FF000074FF000084FF0000B10
:1004D00021F00701AC46ACE8C009ACE8C009ACE8C3
:1004E000C009ACE8C0098D46704710B50446AFF3AB
:1004F00000802046BDE81040FFF799BE00487047D5
:100500002853002054494A6822F440324A604A681D
:1005100043681A434A600268526822F48072036892
:100520005A6002685368026943EA022203685A600B
:100530000268526822F0407203685A60026852688A
:1005400083681A4303685A600268926822F4006262
:1005500003689A6002689268C3681A4303689A60E5
:100560003E4B826A9A4218D00268926822F070620A
:1005700003689A6002689268836A1A4303689A6003
:100580000268926822F0405203689A60026892689A
:10059000C36A1A4303689A600BE00268926822F00B
:1005A000706203689A600268926822F040520368A1
:1005B0009A600268926822F0020203689A600268F8
:1005C0009368826943EA420203689A60026AA2B1B0
:1005D0000268526842F4006203685A600268526816
:1005E00022F4604203685A6002685368426A521EED
:1005F00043EA423203685A6005E00268526822F416
:10060000006203685A600268D26A22F470020368CA
:10061000DA620268D36A828B521E43EA025203688E
:10062000DA620268926822F4007203689A600268D3
:100630009368026B43EA422203689A6002689268F8
:1006400022F4806203689A6002689368426943EA10
:10065000822203689A607047002301400100000F66
:1006600010B50446044A32F81410044A52F8240023
:10067000012200F0ABFD10BDC23C00083C00002090
:1006800070B505460C4604F0020010B101A0FFF75A
:100690006DFE70BDB0B4BCFC31B1BBB0B4CFC20D07
:1006A0000A00000070B505460C4604F0020010B1C7
:1006B00001A0FFF75BFE70BDB0B4BCFC32B1BBB0B3
:1006C000B4CFC20D0A00000070B505460C4604F018
:1006D000020010B101A0FFF749FE70BDB0B4BCFC30
:1006E00033B1BBB0B4CFC20D0A00000070B50546EF
:1006F0000C4604F0020010B101A0FFF737FE70BDF8
:10070000B0B4BCFC34B1BBB0B4CFC20D0A00000021
:1007100000BFFEE710B50249C86C00F05DFA10BDDD
:10072000C400002010B50249886C00F055FA10BDD5
:10073000C40000200146087810381823B0FBF3F2FB
:100740000848805CC865032A05D908686FF309006A
:10075000001D886503E008686FF309008865886DEF
:1007600070470000D23C0008014600208A6A8B696D
:10077000CBB932B1012A0DD0022A03D0032A10D1FD
:100780000EE000BFCB6A03F08073B3F1807F00D12D
:10079000012007E0CB6AB3F1C07F00D1012001E066
:1007A00000E000BF34E08B69B3F5005F1AD132B1CD
:1007B000012A07D0022A03D0032A11D10AE000BF80
:1007C00001200EE0CB6A03F08073B3F1807F00D18B
:1007D000012006E0CB6AB3F1C07F00D1012000E028
:1007E00000BF15E032B1012A05D0022A04D0032A45
:1007F0000CD103E000BF00BF012008E0CB6A03F08A
:100800008073B3F1807F00D1012000E000BF00BF02
:10081000704730B50468246824F4802405682C608F
:10082000046863608468402C04D10468A260046892
:10083000E16003E00468A1600468E26030BD7047D5
:1008400001B9704700BFFEE710B50446044A32F80C
:100850001410044A52F8240000F0B0FC10BD00004F
:10086000C23C00083C00002038B502460020009041
:1008700000BF92F83C00012801D1022038BD0120C0
:1008800082F83C0000BF0868092816D91068C068C3
:100890000C780A3C04EB44050724AC40A0431468E0
:1008A000E0600C780A3C04EB44048868A0401468BB
:1008B000E46820431468E06013E0106800690C7875
:1008C00004EB44050724AC40A043146820610C7875
:1008D00004EB44048868A040146824692043146829
:1008E00020614868072817D21068406B0C79641E95
:1008F00004EB84051F24AC40A0431468606308889F
:1009000080B20C79641E04EB8404A0401468646B0C
:1009100020431468606331E048680D2817D21068DE
:10092000006B0C79E41F04EB84051F24AC40A0434A
:1009300014682063088880B20C79E41F04EB8404F7
:10094000A0401468246B20431468206316E01068EC
:10095000C06A0C790D3C04EB84051F24AC40A04315
:100960001468E062088880B20C790D3C04EB8404C2
:10097000A0401468E46A20431468E0621A4B1B4CE0
:100980001068A04206D10868122803D1586840F4C4
:1009900080005860154C1068A0421ED1144C0868A5
:1009A000A04202D00868112817D1586840F400000E
:1009B00058600F4C0868A0420FD10E4800680E4CDA
:1009C000B0FBF4F000EB80004000009002E00098E3
:1009D000401E009000980028F9D100BF002082F846
:1009E0003C0000BF00BF49E7002301400020014058
:1009F000120000100000002040420F0070B50446B5
:100A000000250CB9012070BD1549A06A884200D0AC
:100A100000BF206C30B90020606484F83C002046A0
:100A200000F020F8206C00F0100088B9206C20F451
:100A3000885040F0020020642046FFF763FD00204C
:100A40006064206C20F0020040F00100206400E0AF
:100A5000012500BF002084F83C0000BF2846D2E7F3
:100A60000100000F10B586B00446142101A8FFF75D
:100A7000BDFC3149206888425CD100BF0020009055
:100A80002E48006840F480702C49086008460068D1
:100A900000F48070009000BF00BF00BF00200090F5
:100AA00026481438006840F00400244914390860CE
:100AB0000846006800F00400009000BF00BF00BFBF
:100AC000002000900846006840F0010008600846D9
:100AD000006800F00100009000BF00BF00BF0020D0
:100AE00000900846006840F0020008600846006870
:100AF00000F00200009000BF00BF0F200190032013
:100B000002900020039001A90D4800F06DFA0F201B
:100B10000190032002900020039001A9094800F0F1
:100B200063FA0320019002900020039001A9064877
:100B300000F05AFA06B010BD0020014044380240CF
:100B4000000802400000024000040240014691F803
:100B50003500022803D08020486501207047052019
:100B600081F835000868006820F001000A6810600C
:100B70000020F3E770B504460CB9012070BD94F86D
:100B80003500022800D1F9E72068006820F0010054
:100B90002168086000202168086021684860216899
:100BA00088602168C8602168086121202168486147
:100BB0002046FFF7BFFD054694F85C103F208840B3
:100BC000A8600020606584F8350000BF84F8340018
:100BD00000BF00BFD2E70000F8B504460020009037
:100BE0008C4800684FF41651B0FBF1F7A56D2E68E4
:100BF00094F85C1008208840304098B12068006864
:100C000000F0040070B12068006820F00400216842
:100C1000086094F85C1008208840A860606D40F07F
:100C20000100606594F85C1001208840304068B194
:100C30002068406900F0800040B194F85C10012009
:100C40008840A860606D40F00200606594F85C1018
:100C500004208840304068B12068006800F002003D
:100C600040B194F85C1004208840A860606D40F0AA
:100C70000400606594F85C1010208840304078B320
:100C80002068006800F0080050B394F85C10102051
:100C90008840A8602068006800F4802080B1206847
:100CA000006800F4002028B9206CC8B12046216CEF
:100CB000884715E0A06C98B12046A16C88470FE0EA
:100CC0002068006800F4807028B92068006820F06F
:100CD000080021680860206C10B12046216C88470C
:100CE00094F85C10202088403040002865D02068AF
:100CF000006800F0100000285FD094F85C102020FD
:100D00008840A86094F83500052828D1206800683C
:100D100020F01600216808602068406920F08000FB
:100D200021684861206C08B9A06C28B1206800686F
:100D300020F008002168086094F85C103F2088408B
:100D4000A86000BF002084F8340000BF012084F8B0
:100D50003500206D10B12046216D8847F8BD206810
:100D6000006800F4802080B12068006800F4002052
:100D700028B9606C10B12046616C88471DE0E06BBB
:100D8000D8B12046E16B884717E02068006800F47E
:100D9000807068B92068006820F010002168086041
:100DA00000BF002084F8340000BF012084F8350023
:100DB000E06B10B12046E16B8847606D38B3606D21
:100DC00000F00100F0B1052084F8350020680068CB
:100DD00020F001002168086000BF0098401C0090CE
:100DE000B84200D905E02068006800F00100002842
:100DF000F3D100BF00BF002084F8340000BF012001
:100E000084F83500E06C10B12046E16C884700BFE3
:100E1000A4E70000000000202DE9F0410446002571
:100E200000F0DAF9074614B90120BDE8F081606AE4
:100E300000B100BF00BF002084F8340000BF0220D2
:100E400084F835002068006820F0010021680860FF
:100E50000AE000F0C1F9C01B052805D92020606513
:100E6000032084F83500E0E72068006800F0010006
:100E70000028EED12068056821480540D4E9010129
:100E80000843E16808432169084361690843A1698F
:100E90000843E1690843216A08430543606A04285E
:100EA00003D1D4E90B01084305432068056020689D
:100EB000456925F00705606A0543606A04280DD17D
:100EC000A06A0543E06A48B12046FFF74DFC28B10F
:100ED00040206065012084F83500A6E72068456160
:100EE0002046FFF727FC064694F85C103F20884018
:100EF000B06000206065012084F83500002094E790
:100F00003F8010F02DE9F04704460D4616461F4677
:100F10004FF00008D4F8589000BF94F8340001282E
:100F200002D10220BDE8F087012084F8340000BF20
:100F300094F8350001282BD1022084F835000020D8
:100F400060653B46324629462046FFF762FC94F82E
:100F50005C103F208840C9F808002068006840F015
:100F60001600216808602068406940F08000216810
:100F70004861206C28B12068006840F008002168B2
:100F800008602068006840F001002168086006E001
:100F900000BF002084F8340000BF4FF00208404634
:100FA000C0E7000010B54FF0FF300E490860002088
:100FB0000860401E091D086000200860401E0949A5
:100FC0001039086000200860401E091D08600020DC
:100FD0000860401E091D08600020086000F08CF9C0
:100FE000002010BD20380240F8B503460A4600250F
:100FF000002400200021CDE0012606FA01F5166844
:1010000006EA0504AC4273D15668022E02D0566837
:10101000122E13D1CF0803F1200656F827004E07F1
:10102000F70E0F26BE40B0434F07FF0E1669BE40B5
:101030003043CF0803F1200646F8270018684F0018
:101040000326BE40B043167906F003064F00BE40AB
:10105000304318605668012E08D05668022E05D01D
:101060005668112E02D05668122E13D198684F0080
:101070000326BE40B0434F00D668BE403043986060
:10108000586801268E40B0431679C6F300168E408C
:1010900030435860D8684F000326BE40B0434F002D
:1010A0009668BE403043D860566806F08056B6F168
:1010B000805F6ED100BF00260096384E366846F439
:1010C0008046364F3E603E46366806F480460096BF
:1010D00000BF00BF324E8F0856F827008E07370F2B
:1010E0000F26BE40B0432F4EB34202D1002615E07A
:1010F0004FE02D4EB34201D101260FE02B4EB342FB
:1011000001D102260AE02A4EB34201D1032605E0AE
:10111000284EB34201D1042600E007268F073F0F77
:10112000BE4030431E4E8F0846F82700224E3068DE
:10113000A043566806F48036B6F5803F00D12043C0
:101140001D4E3060361D3068A043566806F40036E8
:10115000B6F5003F00D12043174E361D3060361DD6
:101160003068A043566806F48016B6F5801F00D19B
:101170002043114E08363060361D3068A043566853
:1011800006F40016B6F5001F00D120430A4E0C36B7
:101190003060491C1029FFF42FAFF8BD44380240DD
:1011A00008380140000002400004024000080240EC
:1011B000000C024000100240003C0140024613694E
:1011C0000B400BB1012000E0002070470AB18161A3
:1011D00001E00B048361704701480068704700001C
:1011E0007000002070B504460CB9012070BD4CF6AB
:1011F000CC402168086045F2555021680860D4E968
:10120000001048602168A0688860FFF7E5FF054688
:1012100006E0FFF7E1FF401B302801D90320E5E796
:101220002068C0680028F4D14AF6AA202168086026
:101230000020DBE701464AF6AA200A681060002079
:10124000704701464CF6CC400A6810604AF6AA2066
:101250000A68106000207047034800680349097855
:1012600008440149086070477000002078000020A1
:1012700010B50D48006840F400700B49086008463E
:10128000006840F4806008600846006840F48070A0
:101290000860032000F07EF80F2000F007F800F04F
:1012A0002CF8002010BD0000003C024070B5044640
:1012B0000E4800784FF47A71B1FBF0F00C490968E0
:1012C000B1FBF0F5284600F0ACFE08B1012070BD7E
:1012D000102C07D200222146501E00F01CF80548B1
:1012E000046001E00120F2E70020F0E77800002030
:1012F00000000020740000207047704700BF00F01D
:101300001F02012191404209920002F1E022C2F83D
:10131000001100BF70472DE9F05F80460D4616466C
:10132000002701F097F9074639462A46334601F06F
:101330000700C0F1070ABAF1040F02D94FF0040AFE
:1013400001E0C0F1070AD14600F1040ABAF1070F23
:1013500002D24FF0000A01E0A0F1030AD4464FF098
:10136000010A0AFA09FAAAF1010A0AEA020A0AFAC1
:101370000CFA4FF0010B0BFA0CFBABF1010B0BEA73
:10138000030B4AEA0B042146404601F06BF9BDE825
:10139000F09F000000BF00F00702064B19684FF6EF
:1013A000FF031940044B0B4343EA0221014B196030
:1013B00000BF70470CED00E00000FA0570B5044670
:1013C0000D460CB9012070BD5848006800F00F00B0
:1013D000A84209D255490D700846006800F00F0078
:1013E000A84201D00120EEE7207800F00200022898
:1013F0001DD1207800F00400042805D14C48006875
:1014000040F4E0504A490860207800F008000828BD
:1014100005D14748006840F46040454908604448A9
:10142000006820F0F000A168084341490860207876
:1014300000F00100A8B36068012807D13C480838D3
:101440000068C0F34040B8B90120BCE760680228DA
:1014500002D06068032807D1354808380068C0F317
:10146000406048B90120AEE7314808380068C0F351
:10147000400008B90120A6E72D48006820F00300CD
:10148000616808432A490860FFF7A6FE064609E09E
:10149000FFF7A2FE801B41F28831884202D9032067
:1014A00091E707E02248006800F00C006168B0EBAB
:1014B000810FEDD11D48006800F00F00A84209D946
:1014C0001A490D700846006800F00F00A84201D0CC
:1014D000012078E7207800F00400042807D11448A0
:1014E000006820F4E050E168084311490860207862
:1014F00000F00800082808D10D48006820F460407A
:10150000216940EAC1000A49086000F03DF8084935
:101510000968C1F30311074A515CC84006490860D5
:101520000F20FFF7C3FE00204DE70000003C024003
:1015300008380240AA3C000800000020014800686A
:10154000704700000000002000B5FFF7F7FF0449D6
:101550000968C1F38221034A515CC84000BD000004
:1015600008380240BA3C000800B5FFF7E7FF04491D
:101570000968C1F34231034A515CC84000BD000014
:1015800008380240BA3C00082DE9F0470024002545
:101590000026A1462548006800F00C0020B1042870
:1015A00005D008283AD105E0DFF8849039E0DFF86B
:1015B000849036E01D48001F006800F03F041B487F
:1015C000001F006800F4800078B11A481749091F0D
:1015D0000968C1F38811A0FB01700146224600236F
:1015E0003846FEF74CFE05460EE011480F49091F2C
:1015F0000968C1F38811A0FB01700146224600234F
:101600003846FEF73CFE05460848001F0068C0F358
:101610000140401C4600B5FBF6F902E0DFF81090EF
:1016200000BF00BF4846BDE8F08700000838024010
:101630000024F40000127A00F8B504460CB9012029
:10164000F8BD207800F00100002874D0F948006847
:1016500000F00C0004280DD0F648006800F00C00E3
:10166000082813D1F348001F006800F48000B0F58B
:10167000800F0BD1EF4808380068C0F340400028C5
:1016800059D06068002856D10120D9E700BF6068B2
:10169000B0F5803F08D1E7480838006840F4803052
:1016A000E449083908601EE06068B0F5A02F0DD14C
:1016B000E0480838006840F48020DE4908390860B6
:1016C0000846006840F4803008600CE0D9480838CB
:1016D000006820F48030D74908390860084600685F
:1016E00020F48020086000BF606890B1FFF774FDAF
:1016F000054606E0FFF770FD401B642801D9032072
:101700009EE7CC4808380068C0F340400028F1D07C
:1017100011E0FFF761FD054606E0FFF75DFD401BA8
:10172000642801D903208BE7C24808380068C0F359
:1017300040400028F1D1207800F0020002285FD15B
:10174000BC48006800F00C0058B1BA48006800F0CE
:101750000C0008281CD1B748001F006800F4800066
:10176000B0B9B44808380068C0F3400020B1E06860
:10177000012801D0012063E7AE480838006820F056
:10178000F800216940EAC100AA490839086037E039
:10179000E06800B30120A8490860FFF71DFD054679
:1017A00006E0FFF719FD401B022801D9032047E797
:1017B000A04808380068C0F340000028F1D09D48D8
:1017C0000838006820F0F800216940EAC100994912
:1017D0000839086014E0002097490860FFF7FCFC16
:1017E000054606E0FFF7F8FC401B022801D903205C
:1017F00026E7904808380068C0F340000028F1D17F
:10180000207800F0080008282CD16069A8B10120D8
:101810008A490860FFF7E0FC054606E0FFF7DCFCBC
:10182000401B022801D903200AE782486C30006877
:10183000C0F340000028F1D014E000207F49086088
:10184000FFF7CAFC054606E0FFF7C6FC401B02286E
:1018500001D90320F4E677486C300068C0F34000FB
:101860000028F1D1207800F00400042870D100266F
:1018700070483830006800F0805090B900BF0020F8
:1018800000906C483830006840F080506949383129
:1018900008600846006800F08050009000BF00BF5C
:1018A00001266748006800F48070B0B96448006899
:1018B00040F4807062490860FFF78EFC054606E040
:1018C000FFF78AFC401B022801D90320B8E65C48D8
:1018D000006800F480700028F2D000BFA0680128E2
:1018E00008D154486830006840F00100514968311F
:1018F00008601DE0A06805280DD14E4868300068DA
:1019000040F004004B49683108600846006840F028
:10191000010008600CE047486830006820F00100D2
:101920004449683108600846006820F004000860F7
:1019300000BFA068A8B1FFF74FFC054609E0FFF71C
:101940004BFC401B41F28831884202D9032077E6E4
:1019500026E0384868300068C0F340000028EED028
:1019600013E0FFF739FC054608E0FFF735FC401BA4
:1019700041F28831884201D9032061E62D48683060
:101980000068C0F340000028EFD1012E07D129489C
:101990003830006820F0805026493831086000BF98
:1019A000A069B8B32348006800F00C0008285ED096
:1019B000A069022846D100201F490866FFF70CFCE9
:1019C000054606E0FFF708FC401B022801D903206A
:1019D00036E6184808380068C0F340600028F1D1A6
:1019E000D4E907010843616A40EA81110122A06A33
:1019F000C2EB500041EA00412C20005D41EA00604A
:101A00000C49091F086001200B490866FFF7E4FB39
:101A1000054607E02DE0FFF7DFFB401B022801D958
:101A200003200DE6034808380068C0F34060002832
:101A3000F1D01EE00838024000004742800E4742C5
:101A40000070004000200C490866FFF7C5FB054602
:101A500006E0FFF7C1FB401B022801D90320EFE598
:101A600006480068C0F340600028F2D101E0012080
:101A7000E6E50020E4E500000000474200380240AF
:101A800010B504460CB9012010BD022084F85100A5
:101A90002068006820F0400021680860204600F0BF
:101AA000FDF80020606584F8510000BF84F8500004
:101AB00000BF00BFE8E700000221014A1160704743
:101AC00018000020F8B5044620684668206885683C
:101AD00005F0400048B905F0010030B106F04000C3
:101AE00018B12046216C8847F8BD05F0020030B1DE
:101AF00006F0800018B12046616C8847F4E705F4D1
:101B0000B070002876D006F02000002872D005F0D2
:101B10004000F0B194F8510003280ED0606D40F001
:101B20000400606500BF002000902068C06800903D
:101B300020688068009000BF0BE000BF002000908C
:101B40002068C068009020688068009000BF00BFD7
:101B5000CAE705F0200088B1606D40F001006065C3
:101B600000BF002000902068806800902068006816
:101B700020F040002168086000BF00BF05F48070BD
:101B800058B1606D40F00800606500BF0020009013
:101B900020688068009000BF00BF606D20B320689F
:101BA000406820F0E00021684860012084F851007E
:101BB00006F0020010B906F00100B8B120684068D4
:101BC00020F0030021684860E06C28B10A48E16C0D
:101BD0000865E06CFEF7BAFFA06C28B10648A16C5E
:101BE0000865A06CFEF7B2FF03E003E02046FFF7B4
:101BF00063FF79E700BF77E71127000810B50446B7
:101C00000CB9012010BD606A00B900BFA06AB0F530
:101C1000005F00D100BF94F8510028B9002084F87B
:101C20005000204600F03CF8022084F85100206863
:101C3000006820F0400021680860D4E901010843F1
:101C4000E16808432169084361690843218B01F475
:101C500000710843E1690843216A0843A16A084307
:101C6000216808600421A06901EA1040616A084304
:101C700021684860A06AB0F5005F02D12168E06A7F
:101C800008612068C06920F400602168C8610020F4
:101C90006065012084F851000020B3E77047000020
:101CA00010B586B0044600BF00200090714800685F
:101CB00040F001006F4908600846006800F001002C
:101CC000009000BF00BF00BF0020009008460068E1
:101CD00040F0010008600846006800F00100009034
:101CE00000BF00BF00BF002000900846006840F021
:101CF000010008600846006800F00100009000BF85
:101D000000BF00BF002000905A481430006840F423
:101D100080505849143108600846006800F480502B
:101D2000009000BF00BF2020019002200290002000
:101D30000390022004900520059001A94E48FFF76A
:101D400053F9402001900520059001A94A48FFF76A
:101D50004BF9802001900520059001A94648FFF726
:101D600043F900BF002005904248006840F480001D
:101D7000404908600846006800F48000059000BFF4
:101D800000BF3E483E4908604FF080604860002137
:101D90003B484162032181620021C162016340210D
:101DA00081600021C1604FF48061016100214161C7
:101DB0008161C1610162FEF7DDFE18B1DF2131A052
:101DC000FEF73EFD2E48FFF727F818B1E5212DA0BC
:101DD000FEF736FD00BF2A48A064846300BF274891
:101DE0003038304908604FF0C060486000212D480D
:101DF0004162032181620021C16201638160C1608F
:101E00004FF480610161002141618161C1614FF442
:101E100000310162FEF7AEFE18B1FD2119A0FEF7F8
:101E20000FFD2048FEF7F8FF20B140F2031115A086
:101E3000FEF706FD00BF1B48E064846300BF00227C
:101E400001213A20FFF767FA3A20FFF757FA0022FC
:101E500001213820FFF75FFA3820FFF74FFA002200
:101E600001212320FFF757FA2320FFF747FA06B096
:101E700010BD0000303802400000024040640240C3
:101E80001C0100202E2E5C48415244574152455CB3
:101E90004253505F5350495C6273705F7370692E98
:101EA000630000007C010020704770472DE9F04777
:101EB00004460E4617461D464FF00008C146C2466E
:101EC00000BF94F85000012802D10220BDE8F0873D
:101ED000012084F8500000BF94F85180D4F8049099
:101EE000B8F1010F0AD0B9F5827F04D1A06810B90A
:101EF000B8F1040F02D04FF0020A7AE00EB107B138
:101F000015B94FF0010A74E094F85100012802D18C
:101F1000052084F85100002060652663A586E586CB
:101F2000A763A587E58720646064A06AB0F5005FB9
:101F30000ED100BF206800684DF6FF71084021688F
:101F400008602068006840F400502168086000BF05
:101F500094F85100042806D12948E16C0864294806
:101F6000E16CC86305E02848E16C08642748E16C2F
:101F7000C8632748E16CC8640020E16C0865E38F02
:101F8000D4F800C00CF10C01A26BE06CFEF7BAFFB4
:101F90002068406840F00100216848600020A16C82
:101FA0000864A16CC863A16CC864A16C0865E38E69
:101FB000D4F800C00CF10C02216BA06CFEF7A2FF5C
:101FC0002068006800F04000402805D020680068C4
:101FD00040F04000216808602068406840F0200020
:101FE000216848602068406840F00200216848602D
:101FF00000BF00BF002084F8500000BF504665E7D6
:102000004D270008692700085B2700081F280008E3
:10201000252700080121014A11607047180000209F
:10202000704770B504462546681EB0F1807F01D325
:1020300001200FE0681E4FF0E02148610F214FF0B2
:10204000FF3000F00FFB00204FF0E02188610720F7
:102050000861002070BD10B504460CB9012010BD08
:1020600094F83D0028B9002084F83C00204600F098
:102070000CF8022084F83D00211D206800F0BEFD10
:10208000012084F83D000020E9E770470146022066
:1020900081F83D000868006840F001000A6810609F
:1020A000012081F83D000020704770470146002262
:1020B000002391F8392091F83A3042EA0300704742
:1020C0002DE9F0470446206805682068C668206846
:1020D00047694FF00008C14605F00F08B8F1000F3E
:1020E0000AD105F0200038B106F0200020B12046CA
:1020F00000F006FEBDE8F087B8F1000F6DD007F0E4
:10210000010018B906F49070002866D005F00100AF
:1021100030B106F4807018B1E06B40F00100E0636C
:1021200005F0040030B107F0010018B1E06B40F099
:102130000200E06305F0020030B107F0010018B1C1
:10214000E06B40F00400E06305F0080030B107F0F8
:10215000010018B1E06B40F00800E063E06B68B389
:1021600005F0200028B106F0200010B1204600F054
:10217000C7FD20684069C0F38019E06B00F00800DB
:1021800010B9B9F1000F22D0204600F099FD206867
:10219000406900F04000B0B12068406920F0400084
:1021A00021684861606B50B11748616B0865606BCE
:1021B000FEF7CCFC10B1606B016D88470CE0204647
:1021C000FFF773FF08E02046FFF76FFF04E02046AB
:1021D000FFF76BFF0020E0638CE705F0800030B173
:1021E00006F0800018B1204600F08CFF82E705F071
:1021F000400030B106F0400018B1204600F070FDFC
:1022000078E700BF76E70000AD2C000810B5044663
:102210000CB9012010BDA06900B100E000BF94F826
:10222000390028B9002084F83800204600F028F84A
:10223000242084F839002068C06820F40050216808
:10224000C860204600F0AAFD2068006920F4904094
:10225000216808612068406920F02A0021684861EF
:102260002068C06840F400502168C8600020E06326
:10227000202084F8390084F83A000020CAE70000E2
:1022800010B586B004466549206888423ED100BF3B
:10229000002000906248006840F00100604908603A
:1022A0000846006800F00100009000BF00BF00BFBA
:1022B000002000905A481430006840F0200058492F
:1022C000143108600846006800F02000009000BF4C
:1022D00000BFC81401900220029001200390022048
:1022E00004900820059001A94E48FEF77DFE4FF4AA
:1022F0008050019001A94B48FEF776FE4720FEF77B
:10230000FDFF032211464720FFF705F846492068E4
:1023100088423ED100BF002000904148006840F054
:1023200001003F4908600846006800F00100009085
:1023300000BF00BF00BF0020009039481430006883
:1023400040F010003649143108600846006800F07B
:102350001000009000BF00BF4815019002200290BD
:1023600001200390022004900720059001A92D4828
:10237000FEF73AFE4FF48060019001A92948FEF76C
:1023800033FE2520FEF7BAFF022203212520FEF7A7
:10239000C2FF2649206888423DD100BF002000903E
:1023A0001F48006840F001001D49086008460068A9
:1023B00000F00100009000BF00BF00BF00200090AF
:1023C00017481030006840F400301549103108609B
:1023D0000846006800F40030009000BF00BF0420F1
:1023E0000190022002900120039002200490072017
:1023F000059001A90B48FEF7F7FD0820019001A9FF
:102400000848FEF7F1FD2620FEF778FF01220321A0
:102410002620FEF780FF06B010BD0000001401402A
:1024200030380240000002400010014000440040EB
:1024300010B5034693F83A00202829D101B10AB912
:10244000012010BD00BF93F83800012801D10220FF
:10245000F7E7012083F8380000BF99629A85DA8592
:102460000020D863222083F83A0000BF002083F8C0
:10247000380000BF1868406940F001001C686061C6
:102480001868C06840F490701C68E0600020D8E7CD
:102490000220D6E7604A0168914239D15F49098834
:1024A00001F4004100290BD15C49098801F4804105
:1024B00071B15B4909780A2903D00021574A11807C
:1024C000A8E05649098841F40041544A1180A1E02E
:1024D000534909780D2906D15049098841F48041B2
:1024E0004E4A118096E04E4909784C4A1288C2F350
:1024F0000D024C4B995449490988491C474A11809F
:1025000011460988B1F5805FDADB0021118081E096
:10251000454A0168914241D1444909783C2903D197
:102520004FF48041424A11804149098801F4004139
:1025300000296FD13E49098801F48041002969D002
:102540003A4909783E2912D13949098841F40041B4
:10255000374A1180354909781288C2F30D02354B8C
:10256000995433490988491C314A118052E02F4956
:1025700009782F4A1288C2F30D022E4B99542C4928
:102580000988491C2A4A118011460988C1F30D01A6
:10259000B1F5805F3EDB002111803BE0264A0168F7
:1025A000914237D12549098801F4004191BB234963
:1025B000098801F4804171B1214909780A2903D0C1
:1025C00000211E4A118025E01C49098841F4004180
:1025D0001A4A11801EE01A4909780D2906D11749B7
:1025E000098841F48041154A118013E014490978A3
:1025F000124A1288C2F30D02124B99540F490988EE
:10260000491C0E4A118011460988B1F5805F01DB33
:102610000021118070470000001401406400002078
:102620006A00002068220020001001406B0000209A
:10263000660000206832002000440040680000204E
:102640006C00002068420020704700BFFEE700BF1A
:10265000FEE7704702480068C0F3022070470000A0
:102660000CED00E010B5002807DA0A07140E054A41
:1026700000F00F031B1FD45403E00A07130E024A95
:10268000135410BD18ED00E000E400E0704710B5F1
:102690000320FEF7D9F808B9012010BD0020FCE79F
:1026A00010B50420FEF7D0F808B9012010BD0020B5
:1026B000FCE710B50520FEF7C7F808B9012010BDEA
:1026C0000020FCE710B50620FEF7BEF808B901208F
:1026D00010BD0020FCE7000010B50248FFF7F2F93A
:1026E00010BD0000C4000020F8B504460D46164693
:1026F0002B46002280212046009600F0E4F828B105
:10270000606D40F0200060650320F8BD0020FCE70C
:1027100070B50546AC6B0020E087E0862046FFF7E9
:10272000CBF970BD70B50546AC6B2068406820F0F1
:10273000030021684860606D40F010006065012072
:1027400084F851002046FFF7B7F970BD70B5044614
:10275000A56B2846FFF7A9FB70BD70B50446A56BB5
:102760002846FFF75DFC70BD7CB50546AC6B0026C6
:1027700000200190FEF730FD06462868006800F44E
:102780008070002846D1A06AB0F5005F11D16423A3
:10279000012211462046009600F095F818B1606DB0
:1027A00040F0020060652068C06880B20190BDF80A
:1027B00004002068406820F00300216848606068D9
:1027C000B0F5827F0DD1A068B0F5004F03D0A068AE
:1027D000B0F5806F05D12068006820F040002168C6
:1027E00008600020E087012084F85100206880689C
:1027F00000F01000102807D1606D40F00200606505
:102800004FF6EF7021688860606D18B12046FFF7C1
:1028100053F97CBD2046FFF747FB00BFF9E77CB5C5
:102820000546AC6B002600200190FEF7D5FC06465D
:102830002868006800F4807000283FD1A06AB0F5D5
:10284000005F11D16423012211462046009600F05A
:102850003AF818B1606D40F0020060652068C06809
:1028600000B20190BDF90400324664212046FFF712
:102870003BFF18B1606D40F0200060652068406843
:1028800020F00300216848600020E086E0870120F6
:1028900084F851002068806800F01000102807D1EB
:1028A000606D40F0020060654FF6EF70216888604F
:1028B000606D18B12046FFF7FFF87CBD2046FFF79A
:1028C000A9FB00BFF9E72DE9F04104460E46174683
:1028D0001D46DDF818803FE0681CE0B32DB1FEF71F
:1028E0007BFCA0EB0800A84236D32068406820F0AB
:1028F000E000216848606068B0F5827F0DD1A06873
:10290000B0F5004F03D0A068B0F5806F05D1206806
:10291000006820F0400021680860A06AB0F5005F00
:102920000ED100BF206800684DF6FF710840216895
:1029300008602068006840F400502168086000BF0B
:10294000012084F8510000BF002084F8500000BF2F
:102950000320BDE8F081FFE7206880683040B04286
:1029600001D1012000E00020B842B5D10020F0E7FD
:102970007047000010B5FEF76FFC0448007800B9FE
:1029800010BD00F005F800BFFAE700003800002095
:1029900010B51B48006840B119480068401E18492E
:1029A000086010B9012017490870002408E004EB02
:1029B0004401154A02EB810000F027FF601CC4B2FD
:1029C000042CF4DB11480068401C104908600846DC
:1029D00000686FF00041884202D100200B49086076
:1029E00000F012FF0A480078401CC0B20849087085
:1029F0000A2803DB0020087000F002FF10BD000071
:102A00002C00002030000020DC21002034000020B9
:102A10003900002000B593B0302107A8FDF7E6FC8F
:102A2000142102A8FDF7E2FC00BF00200190264817
:102A3000006840F08050244908600846006800F0B3
:102A40008050019000BF00BF00BF002001901F48D0
:102A5000006840F440401D4908600846006800F4E2
:102A60004040019000BF00BF0220079001200A9063
:102A700010200B9002200D9000210E9108210F9143
:102A800064211091022111910421129107A8FEF7EF
:102A9000D3FD18B11F210EA0FDF7D2FE0F2002902A
:102AA00002200390002004904FF4805005900020F5
:102AB0000690032102A8FEF781FC18B12D2104A085
:102AC000FDF7BEFE13B000BD40380240007000406C
:102AD0002E2E5C53595354454D5C7379735C737956
:102AE000732E63001448006840F4700012490860B7
:102AF0001248006840F001001049086000200F49AA
:102B0000083108600D4800680D4908400B4908600D
:102B10000C48091D0860081F006820F48020091F68
:102B20000860002005490C3108604FF00060024940
:102B3000803908607047000088ED00E000380240EE
:102B4000FFFFF6FE1030002470B5002500264FF080
:102B50008044206900F00205E06800F002065DB1E3
:102B600056B14FF6FD702061E0684FF6FD710840E8
:102B7000E0601E4800688047206900F00405E068B6
:102B800000F004065DB156B14FF6FB702061E068BD
:102B90004FF6FB710840E0601548006880472069E7
:102BA00000F00805E06800F008065DB156B14FF688
:102BB000F7702061E0684FF6F7710840E0600D485B
:102BC00000688047206900F01005E06800F01006FA
:102BD0005DB156B14FF6EF702061E0684FF6EF71CE
:102BE0000840E06004480068804770BD1C00002079
:102BF000200000202400002028000020002202687D
:102C0000234B98420BD0B0F1804F08D0214B984213
:102C100005D0214B984202D0204B984201D101238C
:102C200000E000231BB122F070024B681A43184BDE
:102C3000984214D0B0F1804F11D0164B98420ED06C
:102C4000154B98420BD0154B984208D0144B984224
:102C500005D0144B984202D0134B984201D1012366
:102C600000E000231BB122F44072CB681A430260DB
:102C70008B68C3620B688362054B984201D10123C4
:102C800000E000230BB10B6903630123436170472C
:102C9000000001400004004000080040000C00401B
:102CA00000400140004401400048014070B5054625
:102CB000AC6B0020E085E0842046FFF7F6F970BD9C
:102CC0000168C96821F490710268D160016849699E
:102CD00021F0010102685161202180F83A1070470B
:102CE00010B504462068C06820F040002168C86024
:102CF000202084F839002046FFF7A6FC002010BDF4
:102D000070B5044694F83A00222844D1A068B0F582
:102D1000805F13D1A56A206940B920684068C0F37C
:102D200008002880A06A801CA06219E02068406822
:102D3000C0B22880A06A401CA06211E0206938B9A6
:102D400020684068C1B2A26A501CA062117007E0FE
:102D50002068406800F07F01A26A501CA0621170D8
:102D6000E08D401E80B2E08598B92068C06820F4EC
:102D700090702168C8602068406920F001002168D7
:102D80004861202084F83A002046FFF783FB0020AA
:102D900070BD0020FCE70220FAE700002DE9F041B9
:102DA000044600252068056925F44055E068054380
:102DB000206805612068C56849F20C608543216977
:102DC000A068084361690843E16908430543206836
:102DD000C5602068456925F44075A06905432068F1
:102DE0004561E069B0F5004F7ED1C4492068884252
:102DF00003D0C349206888425DD1FEF7B5FB00EBE4
:102E0000C00101EB001061684900B0FBF1F06421E2
:102E1000B0FBF1F00601FEF7A7FB00EBC00101EBF0
:102E2000001061684900B0FBF1F7FEF79DFB00EB75
:102E3000C00101EB001061684900B0FBF1F06421B2
:102E4000B0FBF1F000EBC00101EB0010A7EB80003C
:102E5000322101EBC0006421B0FBF1F000F0F8007A
:102E600006EB4006FEF780FB00EBC00101EB001013
:102E700061684900B0FBF1F7FEF776FB00EBC0019B
:102E800001EB001061684900B0FBF1F06421B0FB78
:102E9000F1F000EBC00101EB0010A7EB8000322144
:102EA00001EBC0006421B0FBF1F000F007003044FA
:102EB0002168886020E1FEF747FB00EBC00101EBD1
:102EC000001061684900B0FBF1F06421B0FBF1F043
:102ED0000601FEF739FB00EBC00101EB0010616851
:102EE0004900B0FBF1F700E045E0FEF72DFB00EBF9
:102EF000C00101EB001061684900B0FBF1F06421F2
:102F0000B0FBF1F000EBC00101EB0010A7EB80007B
:102F1000322101EBC0006421B0FBF1F000F0F800B9
:102F200006EB4006FEF710FB00EBC00101EB0010C2
:102F300061684900B0FBF1F7FEF706FB00EBC0014A
:102F400001EB001061684900B0FBF1F06421B0FBB7
:102F5000F1F000EBC00101EB0010A7EB8000322183
:102F600001EBC0006421B0FBF1F000F00700304439
:102F700021688860C0E061492068884203D06049C8
:102F8000206888425CD1FEF7EFFA00EBC00101EB4C
:102F9000001061688900B0FBF1F6FEF7E5FA00EB7E
:102FA000C00101EB001061688900B0FBF1F0642101
:102FB000B0FBF1F000EBC00101EB0010A6EB8000CC
:102FC000322101EB00106421B0FBF1F000F0F006BB
:102FD000FEF7CAFA00EBC00101EB0010616889003E
:102FE000B0FBF1F06421B0FBF1F006EB0016FEF748
:102FF000BBFA00EBC00101EB001061688900B0FB77
:10300000F1F7FEF7B1FA00EBC00101EB00106168C7
:103010008900B0FBF1F06421B0FBF1F000EBC001DE
:1030200001EB0010A7EB8000322101EB00106421BE
:10303000B0FBF1F000F00F003044216888605BE0E5
:10304000FEF782FA00EBC00101EB00106168890015
:10305000B0FBF1F6FEF778FA00EBC00101EB0010CF
:1030600061688900B0FBF1F06421B0FBF1F000EB86
:10307000C00101EB0010A6EB8000322101EB001033
:103080006421B0FBF1F000F0F006FEF75DFA00EB12
:10309000C00101EB001061688900B0FBF1F0642110
:1030A000B0FBF1F006EB0016FEF74EFA00EBC001A4
:1030B00001EB001061688900B0FBF1F7FEF744FAFC
:1030C00000EBC00101EB001061688900B0FBF1F07A
:1030D0006421B0FBF1F000EBC00101EB0010A7EBA5
:1030E0008000322101EB00106421B0FBF1F000F010
:1030F0000F00304421688860BDE8F0810010014075
:1031000000140140014691F8390021282CD188682B
:10311000B0F5805F0FD10A6A1088C0F308000B6811
:103120005860086918B9086A801C086209E0086AD2
:10313000401C086205E00B6A581C086218780B688E
:103140005860C88C401E80B2C88458B90868C068EE
:1031500020F080000B68D8600868C06840F040002C
:103160000B68D860002070470220FCE710B50024EF
:103170000C48FEF7A5FF00BF01E0641C00BF094832
:10318000FEF794FF2028F8D100BF002401E0641C62
:1031900000BF012204490348FFF74AF90028F6D18D
:1031A00000BF10BD685200206B00002010B5002445
:1031B0000C48FEF785FF00BF01E0641C00BF094812
:1031C000FEF774FF2028F8D100BF002401E0641C42
:1031D00000BF012204490348FFF72AF90028F6D16D
:1031E00000BF10BDE85200206C00002010B5002484
:1031F0000C48FEF765FF00BF01E0641C00BF0948F2
:10320000FEF754FF2028F8D100BF002401E0641C21
:1032100000BF012204490348FFF70AF90028F6D14C
:1032200000BF10BDA85200206A00002000BFFEE7CA
:1032300080F31088704700BF704700001FB5002062
:1032400000900190029003905348544908604FF455
:1032500080304860002151488160012101610021D6
:1032600081610121016241620021C1624C49816298
:103270000021C1600A21C161002101630121416176
:10328000FDF7BCFB18B1202146A0FDF7D9FA0020BC
:103290000090012001900320029069463F48FDF70D
:1032A000E3FA18B12A213FA0FDF7CAFA01200090E5
:1032B0000220019069463948FDF7D6FA18B133214A
:1032C00038A0FDF7BDFA0220009003200190694666
:1032D0003248FDF7C9FA18B13C2132A0FDF7B0FA27
:1032E000032000900420019069462C48FDF7BCFAA9
:1032F00018B145212BA0FDF7A3FA08200090052066
:10330000019069462548FDF7AFFA18B14E2125A076
:10331000FDF796FA092000900620019069461F48A3
:10332000FDF7A2FA18B157211EA0FDF789FA0A206D
:1033300000900720019069461848FDF795FA18B1EA
:10334000602118A0FDF77CFA0B2000900820019066
:1033500069461248FDF788FA18B1692111A0FDF7F6
:103360006FFA0C2000900920019069460B48FDF788
:103370007BFA18B172210BA0FDF762FA0D200090C4
:103380000A20019069460548FDF76EFA18B17B21C5
:1033900004A0FDF755FA1FBD002001407C0000206D
:1033A0000100000F2E2E5C48415244574152455CAB
:1033B0004253505F4144435C6273705F6164632EAB
:1033C0006300000010B5044604B910BD012C00D103
:1033D00002240120FFF72CFF09480460002009495E
:1033E0000870FFF725FF06E000F098F80548007820
:1033F000012800D100E0F7E700BF00BFE5E70000CB
:103400002C0000203000002000B587B0142102A855
:10341000FCF7ECFF00BF002001903B48006840F043
:103420000100394908600846006800F00100019079
:1034300000BF00BF00BF002001900846006840F0B8
:10344000040008600846006800F00400019000BF16
:1034500000BF00BF002001900846006840F008004F
:1034600008600846006800F00800019000BF00BF37
:10347000202002900120039000200490059002A9D2
:103480002248FDF7B1FD4020029002A91F48FDF738
:10349000ABFD8020029002A91C48FDF7A5FD4FF46A
:1034A0008070029002A91A48FDF79EFD01221102C8
:1034B0001748FDF78BFE4FF48070029000200390B8
:1034C0000120049002A91148FDF78EFD4FF4007011
:1034D000029002A90D48FDF787FD0120029000200F
:1034E00003900220049002A90A48FDF77DFD042004
:1034F0000290002003900120049002A90648FDF7E5
:1035000073FD07B000BD00003038024000080240E3
:103510000004024000000240000C024010B500F020
:103520001FF910BDF0B591B0402101A8FCF75EFF76
:103530004FF0804500BF002000901F48006840F019
:1035400001001D4908600846006800F00100009075
:1035500000BF00BF1948006847081948B7FBF0F0E2
:10356000401E86B2B5F1804F02D01648854202D186
:103570004FF0FF3401E04FF6FF740195029604947A
:1035800000210591039106918021079101A8FEF782
:1035900062FD20B140F206210BA0FDF751F9022295
:1035A00000211C20FDF7B7FE1C20FDF7A7FE01A897
:1035B000FEF76CFD11B0F0BD403802400000002065
:1035C00040420F00000C00402E2E5C4841524457F0
:1035D0004152455C4253505F54696D65725C627341
:1035E000705F74696D65722E6300000010B5002075
:1035F0000349087000220121082000F003F810BDE3
:103600001400002070B506460C4615461D4800689B
:10361000B04208D11C480068A04204D11B48006891
:10362000A84200D170BD17480660174804601748CB
:1036300005601748174908600846C6610021816087
:1036400044610561C1600162416281620721C1621A
:103650004FF4007181614FF482700E494860084652
:10366000FEF70EFA18B196210BA0FDF7E9F809480C
:10367000FEF7C4FA18B19C2107A0FDF7E1F800BFDE
:10368000D0E7000004000020080000200C0000200B
:1036900000300140C40000202E2E5C4841524457A7
:1036A0004152455C4253505F5350495C6273705FB6
:1036B0007370692E6300000070B5002416E00020CE
:1036C00004EB4401214A02EB8101486004EB440110
:1036D00002EB8101886004EB440102EB8101487038
:1036E00004EB440102F82100601CC4B2042CE6DBA8
:1036F000174800684FF47A72B0FBF2F1481EB0F13F
:10370000807F00D31BE0481E4FF0E022506150172D
:103710000F22002807DA13071E0E0E4B00F00F05CC
:103720002D1F5E5503E013071D0E0B4B1D5400BFEC
:1037300000204FF0E02290610720106100BF0120BF
:1037400006490870FFF7EEFE70BD0000DC21002086
:103750000000002018ED00E000E400E03800002048
:1037600010B50248FDF766FD10BD00005C22002088
:1037700070B504460D460648064908600846446090
:103780008560FDF72FFD0348FDF75BFD70BD000070
:10379000003000405C22002010B500F0B3F9022395
:1037A0000B4A0C490C4800F079F802230B4A0C49EB
:1037B0000C4800F073F802230B4A0C490C4800F047
:1037C0006DF802230B4A0C490C4800F067F810BD55
:1037D000810600088F2600080C220020A50600089C
:1037E000A126000820220020C9060008B3260008F0
:1037F00034220020ED060008C526000848220020DB
:1038000010B500F09BF910BD7047416851B1416897
:10381000491E416031B9012141700178012901D16E
:10382000816841607047000010B50F480068B0F52E
:10383000805F00D910BD00200C4908600A4800884C
:1038400083B20B4A0B490C48FEF730FB20B140F223
:1038500033110AA0FCF7F4FF00BF044800680028F9
:10386000FBD000BFE6E70000100000201800002099
:10387000DC110020DC010020C40000202E2E5C485A
:10388000415244574152455C4253505F5350495C4A
:103890006273705F7370692E630000002DE9F04160
:1038A00004460D4616461F4614212046FCF79EFD91
:1038B0000020A071E560E0688047217A60F3C301D1
:1038C00021722661204600F023F9BDE8F08170B531
:1038D0000446E06880470546E079C0F302100028FE
:1038E00002DDA088401CA080207AC0F3C000A8425E
:1038F00012D0207A401C217A60F30201217201F07B
:10390000070003280CDB207A65F3C3002072207ABD
:1039100020F00700207203E0207A20F007002072D8
:10392000A571E079C0F30210062823D2DFE800F089
:10393000032350A6E8C6207AC0F3C000C0B1A07926
:1039400040F00200A071A07900F0020018B1A17946
:103950002046226990470020A080E07920F00F00E7
:10396000401CE071E07920F070001030E07101E05F
:10397000A079A071C4E0207AC0F3C00098B9A07902
:1039800040F00400A071A07900F0040018B1A17902
:103990002046226990470020A080E07920F0700046
:1039A0002030E07113E0A088962810DDA07940F067
:1039B0004000A071A07900F0400018B1A179204624
:1039C00022699047E07920F070005030E07197E074
:1039D000207AC0F3C00070B3A07940F00200A0715B
:1039E000A07900F0020018B1A17920462269904721
:1039F000E079401CE17960F30301E171E07900F0C6
:103A00000F00022807D1A07900F0200018B1A17999
:103A1000204622699047A07900F0080018B1A179EA
:103A20002046226990470020A080E07920F07000B5
:103A30003030E07121E0A08802281EDDE07900F03E
:103A40000F0001280CD1A07940F01000A071A079DE
:103A500000F0100068B1A17920462269904708E083
:103A6000E07900F00F00022803D1A07940F0200097
:103A7000A071E07920F07000E07141E0207AC0F39D
:103A8000C000D0B9A07940F00400A071A07900F086
:103A9000040018B1A179204622699047A088022825
:103AA00007DA0020A080E07920F070002030E0717B
:103AB00003E0E07920F07000E07121E0207AC0F3AB
:103AC000C00060B1A07940F08000A071A07900F042
:103AD0008000A0B1A1792046226990470FE0A0792B
:103AE00040F00400A071A07900F0040018B1A179A1
:103AF000204622699047E07920F07000E07100BF15
:103B000000BF70BD00200149086070475C000020C4
:103B100001460948026805E08A4202D14FF0FF30B1
:103B200070471268002AF7D103480068086002480D
:103B300001600020F4E700005C00002010B505489B
:103B4000046803E02046FFF7C2FE2468002CF9D188
:103B500010BD00005C00002000BF054A126802F0A2
:103B60004002002AF9D0C2B2014B5A6070470000EF
:103B700000100140002414201B490860FDF778FB69
:103B8000FDF710FAFEF746FF4FF4E131012000F097
:103B90002FF8FFF753FBFFF737FCFFF727FDFFF781
:103BA0008BFDFFF7F9FD40F271210420FFF7E0FDE6
:103BB00019E0FFF7B3FC0020FCF752FD0120FCF7F1
:103BC0004FFD0220FCF74CFD002406E00748055598
:103BD000681CC5B2FFF728FE641C142CF6DB002518
:103BE0006420FFF7EFFBE4E710000020DC01002079
:103BF00070B504460D46062C13D1204820490860B4
:103C00000846456000218160C160016181610C212D
:103C10004161FEF7FBFA01221A491948FEF708FC38
:103C20002AE0012C13D1184818490860084645605D
:103C300000218160C160016181610C214161FEF759
:103C4000E5FA012212491148FEF7F2FB14E0022CBA
:103C500012D1104810490860084645600021816073
:103C6000C160016181610C214161FEF7CFFA01223F
:103C70000A490948FEF7DCFB70BD00000014014052
:103C8000A85200206A000020001001406852002065
:103C90006B00002000440040E85200206C0000202F
:103CA0004FF04070E1EE100A704700000000000085
:103CB00000000102030406070809000000000102D9
:103CC0000304200040008000000100020100040005
:103CD000000100061016000610160000FC3C00084B
:103CE000000000207C000000D4010008783D00089E
:103CF0007C0000200C590000F00100080024F400B2
:103D000000000000000000000000000000000000B3
:103D100000000000000000000000000000000000A3
:103D20000000000000000000000000000000000093
:103D300000000000000000000008024000080240EF
:103D40000008024000080240000802400000024053
:103D5000000C0240000402400000000000000000CF
:103D60000000000000000000000000000000000053
:083D700010000000010000003A
:040000050800019955
:00000001FF
